{
  "_format": "hh-sol-artifact-1",
  "contractName": "GovernorContract",
  "sourceName": "contracts/governance_standard/GovernorContract.sol",
  "abi": [
    {
      "inputs": [
        {
          "internalType": "contract IVotes",
          "name": "_token",
          "type": "address"
        },
        {
          "internalType": "contract TimelockController",
          "name": "_timelock",
          "type": "address"
        },
        {
          "internalType": "uint256",
          "name": "_quorumPercentage",
          "type": "uint256"
        },
        {
          "internalType": "uint256",
          "name": "_votingPeriod",
          "type": "uint256"
        },
        {
          "internalType": "uint256",
          "name": "_votingDelay",
          "type": "uint256"
        }
      ],
      "stateMutability": "nonpayable",
      "type": "constructor"
    },
    {
      "inputs": [],
      "name": "Empty",
      "type": "error"
    },
    {
      "inputs": [],
      "name": "InvalidShortString",
      "type": "error"
    },
    {
      "inputs": [
        {
          "internalType": "string",
          "name": "str",
          "type": "string"
        }
      ],
      "name": "StringTooLong",
      "type": "error"
    },
    {
      "anonymous": false,
      "inputs": [],
      "name": "EIP712DomainChanged",
      "type": "event"
    },
    {
      "anonymous": false,
      "inputs": [
        {
          "indexed": false,
          "internalType": "uint256",
          "name": "proposalId",
          "type": "uint256"
        }
      ],
      "name": "ProposalCanceled",
      "type": "event"
    },
    {
      "anonymous": false,
      "inputs": [
        {
          "indexed": false,
          "internalType": "uint256",
          "name": "proposalId",
          "type": "uint256"
        },
        {
          "indexed": false,
          "internalType": "address",
          "name": "proposer",
          "type": "address"
        },
        {
          "indexed": false,
          "internalType": "address[]",
          "name": "targets",
          "type": "address[]"
        },
        {
          "indexed": false,
          "internalType": "uint256[]",
          "name": "values",
          "type": "uint256[]"
        },
        {
          "indexed": false,
          "internalType": "string[]",
          "name": "signatures",
          "type": "string[]"
        },
        {
          "indexed": false,
          "internalType": "bytes[]",
          "name": "calldatas",
          "type": "bytes[]"
        },
        {
          "indexed": false,
          "internalType": "uint256",
          "name": "voteStart",
          "type": "uint256"
        },
        {
          "indexed": false,
          "internalType": "uint256",
          "name": "voteEnd",
          "type": "uint256"
        },
        {
          "indexed": false,
          "internalType": "string",
          "name": "description",
          "type": "string"
        }
      ],
      "name": "ProposalCreated",
      "type": "event"
    },
    {
      "anonymous": false,
      "inputs": [
        {
          "indexed": false,
          "internalType": "uint256",
          "name": "proposalId",
          "type": "uint256"
        }
      ],
      "name": "ProposalExecuted",
      "type": "event"
    },
    {
      "anonymous": false,
      "inputs": [
        {
          "indexed": false,
          "internalType": "uint256",
          "name": "proposalId",
          "type": "uint256"
        },
        {
          "indexed": false,
          "internalType": "uint256",
          "name": "eta",
          "type": "uint256"
        }
      ],
      "name": "ProposalQueued",
      "type": "event"
    },
    {
      "anonymous": false,
      "inputs": [
        {
          "indexed": false,
          "internalType": "uint256",
          "name": "oldProposalThreshold",
          "type": "uint256"
        },
        {
          "indexed": false,
          "internalType": "uint256",
          "name": "newProposalThreshold",
          "type": "uint256"
        }
      ],
      "name": "ProposalThresholdSet",
      "type": "event"
    },
    {
      "anonymous": false,
      "inputs": [
        {
          "indexed": false,
          "internalType": "uint256",
          "name": "oldQuorumNumerator",
          "type": "uint256"
        },
        {
          "indexed": false,
          "internalType": "uint256",
          "name": "newQuorumNumerator",
          "type": "uint256"
        }
      ],
      "name": "QuorumNumeratorUpdated",
      "type": "event"
    },
    {
      "anonymous": false,
      "inputs": [
        {
          "indexed": false,
          "internalType": "address",
          "name": "oldTimelock",
          "type": "address"
        },
        {
          "indexed": false,
          "internalType": "address",
          "name": "newTimelock",
          "type": "address"
        }
      ],
      "name": "TimelockChange",
      "type": "event"
    },
    {
      "anonymous": false,
      "inputs": [
        {
          "indexed": true,
          "internalType": "address",
          "name": "voter",
          "type": "address"
        },
        {
          "indexed": false,
          "internalType": "uint256",
          "name": "proposalId",
          "type": "uint256"
        },
        {
          "indexed": false,
          "internalType": "uint8",
          "name": "support",
          "type": "uint8"
        },
        {
          "indexed": false,
          "internalType": "uint256",
          "name": "weight",
          "type": "uint256"
        },
        {
          "indexed": false,
          "internalType": "string",
          "name": "reason",
          "type": "string"
        }
      ],
      "name": "VoteCast",
      "type": "event"
    },
    {
      "anonymous": false,
      "inputs": [
        {
          "indexed": true,
          "internalType": "address",
          "name": "voter",
          "type": "address"
        },
        {
          "indexed": false,
          "internalType": "uint256",
          "name": "proposalId",
          "type": "uint256"
        },
        {
          "indexed": false,
          "internalType": "uint8",
          "name": "support",
          "type": "uint8"
        },
        {
          "indexed": false,
          "internalType": "uint256",
          "name": "weight",
          "type": "uint256"
        },
        {
          "indexed": false,
          "internalType": "string",
          "name": "reason",
          "type": "string"
        },
        {
          "indexed": false,
          "internalType": "bytes",
          "name": "params",
          "type": "bytes"
        }
      ],
      "name": "VoteCastWithParams",
      "type": "event"
    },
    {
      "anonymous": false,
      "inputs": [
        {
          "indexed": false,
          "internalType": "uint256",
          "name": "oldVotingDelay",
          "type": "uint256"
        },
        {
          "indexed": false,
          "internalType": "uint256",
          "name": "newVotingDelay",
          "type": "uint256"
        }
      ],
      "name": "VotingDelaySet",
      "type": "event"
    },
    {
      "anonymous": false,
      "inputs": [
        {
          "indexed": false,
          "internalType": "uint256",
          "name": "oldVotingPeriod",
          "type": "uint256"
        },
        {
          "indexed": false,
          "internalType": "uint256",
          "name": "newVotingPeriod",
          "type": "uint256"
        }
      ],
      "name": "VotingPeriodSet",
      "type": "event"
    },
    {
      "inputs": [],
      "name": "BALLOT_TYPEHASH",
      "outputs": [
        {
          "internalType": "bytes32",
          "name": "",
          "type": "bytes32"
        }
      ],
      "stateMutability": "view",
      "type": "function"
    },
    {
      "inputs": [],
      "name": "CLOCK_MODE",
      "outputs": [
        {
          "internalType": "string",
          "name": "",
          "type": "string"
        }
      ],
      "stateMutability": "view",
      "type": "function"
    },
    {
      "inputs": [],
      "name": "COUNTING_MODE",
      "outputs": [
        {
          "internalType": "string",
          "name": "",
          "type": "string"
        }
      ],
      "stateMutability": "pure",
      "type": "function"
    },
    {
      "inputs": [],
      "name": "EXTENDED_BALLOT_TYPEHASH",
      "outputs": [
        {
          "internalType": "bytes32",
          "name": "",
          "type": "bytes32"
        }
      ],
      "stateMutability": "view",
      "type": "function"
    },
    {
      "inputs": [
        {
          "internalType": "address[]",
          "name": "targets",
          "type": "address[]"
        },
        {
          "internalType": "uint256[]",
          "name": "values",
          "type": "uint256[]"
        },
        {
          "internalType": "bytes[]",
          "name": "calldatas",
          "type": "bytes[]"
        },
        {
          "internalType": "bytes32",
          "name": "descriptionHash",
          "type": "bytes32"
        }
      ],
      "name": "cancel",
      "outputs": [
        {
          "internalType": "uint256",
          "name": "",
          "type": "uint256"
        }
      ],
      "stateMutability": "nonpayable",
      "type": "function"
    },
    {
      "inputs": [
        {
          "internalType": "uint256",
          "name": "proposalId",
          "type": "uint256"
        },
        {
          "internalType": "uint8",
          "name": "support",
          "type": "uint8"
        }
      ],
      "name": "castVote",
      "outputs": [
        {
          "internalType": "uint256",
          "name": "",
          "type": "uint256"
        }
      ],
      "stateMutability": "nonpayable",
      "type": "function"
    },
    {
      "inputs": [
        {
          "internalType": "uint256",
          "name": "proposalId",
          "type": "uint256"
        },
        {
          "internalType": "uint8",
          "name": "support",
          "type": "uint8"
        },
        {
          "internalType": "uint8",
          "name": "v",
          "type": "uint8"
        },
        {
          "internalType": "bytes32",
          "name": "r",
          "type": "bytes32"
        },
        {
          "internalType": "bytes32",
          "name": "s",
          "type": "bytes32"
        }
      ],
      "name": "castVoteBySig",
      "outputs": [
        {
          "internalType": "uint256",
          "name": "",
          "type": "uint256"
        }
      ],
      "stateMutability": "nonpayable",
      "type": "function"
    },
    {
      "inputs": [
        {
          "internalType": "uint256",
          "name": "proposalId",
          "type": "uint256"
        },
        {
          "internalType": "uint8",
          "name": "support",
          "type": "uint8"
        },
        {
          "internalType": "string",
          "name": "reason",
          "type": "string"
        }
      ],
      "name": "castVoteWithReason",
      "outputs": [
        {
          "internalType": "uint256",
          "name": "",
          "type": "uint256"
        }
      ],
      "stateMutability": "nonpayable",
      "type": "function"
    },
    {
      "inputs": [
        {
          "internalType": "uint256",
          "name": "proposalId",
          "type": "uint256"
        },
        {
          "internalType": "uint8",
          "name": "support",
          "type": "uint8"
        },
        {
          "internalType": "string",
          "name": "reason",
          "type": "string"
        },
        {
          "internalType": "bytes",
          "name": "params",
          "type": "bytes"
        }
      ],
      "name": "castVoteWithReasonAndParams",
      "outputs": [
        {
          "internalType": "uint256",
          "name": "",
          "type": "uint256"
        }
      ],
      "stateMutability": "nonpayable",
      "type": "function"
    },
    {
      "inputs": [
        {
          "internalType": "uint256",
          "name": "proposalId",
          "type": "uint256"
        },
        {
          "internalType": "uint8",
          "name": "support",
          "type": "uint8"
        },
        {
          "internalType": "string",
          "name": "reason",
          "type": "string"
        },
        {
          "internalType": "bytes",
          "name": "params",
          "type": "bytes"
        },
        {
          "internalType": "uint8",
          "name": "v",
          "type": "uint8"
        },
        {
          "internalType": "bytes32",
          "name": "r",
          "type": "bytes32"
        },
        {
          "internalType": "bytes32",
          "name": "s",
          "type": "bytes32"
        }
      ],
      "name": "castVoteWithReasonAndParamsBySig",
      "outputs": [
        {
          "internalType": "uint256",
          "name": "",
          "type": "uint256"
        }
      ],
      "stateMutability": "nonpayable",
      "type": "function"
    },
    {
      "inputs": [],
      "name": "clock",
      "outputs": [
        {
          "internalType": "uint48",
          "name": "",
          "type": "uint48"
        }
      ],
      "stateMutability": "view",
      "type": "function"
    },
    {
      "inputs": [],
      "name": "eip712Domain",
      "outputs": [
        {
          "internalType": "bytes1",
          "name": "fields",
          "type": "bytes1"
        },
        {
          "internalType": "string",
          "name": "name",
          "type": "string"
        },
        {
          "internalType": "string",
          "name": "version",
          "type": "string"
        },
        {
          "internalType": "uint256",
          "name": "chainId",
          "type": "uint256"
        },
        {
          "internalType": "address",
          "name": "verifyingContract",
          "type": "address"
        },
        {
          "internalType": "bytes32",
          "name": "salt",
          "type": "bytes32"
        },
        {
          "internalType": "uint256[]",
          "name": "extensions",
          "type": "uint256[]"
        }
      ],
      "stateMutability": "view",
      "type": "function"
    },
    {
      "inputs": [
        {
          "internalType": "address[]",
          "name": "targets",
          "type": "address[]"
        },
        {
          "internalType": "uint256[]",
          "name": "values",
          "type": "uint256[]"
        },
        {
          "internalType": "bytes[]",
          "name": "calldatas",
          "type": "bytes[]"
        },
        {
          "internalType": "bytes32",
          "name": "descriptionHash",
          "type": "bytes32"
        }
      ],
      "name": "execute",
      "outputs": [
        {
          "internalType": "uint256",
          "name": "",
          "type": "uint256"
        }
      ],
      "stateMutability": "payable",
      "type": "function"
    },
    {
      "inputs": [
        {
          "internalType": "address",
          "name": "account",
          "type": "address"
        },
        {
          "internalType": "uint256",
          "name": "blockNumber",
          "type": "uint256"
        }
      ],
      "name": "getVotes",
      "outputs": [
        {
          "internalType": "uint256",
          "name": "",
          "type": "uint256"
        }
      ],
      "stateMutability": "view",
      "type": "function"
    },
    {
      "inputs": [
        {
          "internalType": "address",
          "name": "account",
          "type": "address"
        },
        {
          "internalType": "uint256",
          "name": "timepoint",
          "type": "uint256"
        },
        {
          "internalType": "bytes",
          "name": "params",
          "type": "bytes"
        }
      ],
      "name": "getVotesWithParams",
      "outputs": [
        {
          "internalType": "uint256",
          "name": "",
          "type": "uint256"
        }
      ],
      "stateMutability": "view",
      "type": "function"
    },
    {
      "inputs": [
        {
          "internalType": "uint256",
          "name": "proposalId",
          "type": "uint256"
        },
        {
          "internalType": "address",
          "name": "account",
          "type": "address"
        }
      ],
      "name": "hasVoted",
      "outputs": [
        {
          "internalType": "bool",
          "name": "",
          "type": "bool"
        }
      ],
      "stateMutability": "view",
      "type": "function"
    },
    {
      "inputs": [
        {
          "internalType": "address[]",
          "name": "targets",
          "type": "address[]"
        },
        {
          "internalType": "uint256[]",
          "name": "values",
          "type": "uint256[]"
        },
        {
          "internalType": "bytes[]",
          "name": "calldatas",
          "type": "bytes[]"
        },
        {
          "internalType": "bytes32",
          "name": "descriptionHash",
          "type": "bytes32"
        }
      ],
      "name": "hashProposal",
      "outputs": [
        {
          "internalType": "uint256",
          "name": "",
          "type": "uint256"
        }
      ],
      "stateMutability": "pure",
      "type": "function"
    },
    {
      "inputs": [],
      "name": "name",
      "outputs": [
        {
          "internalType": "string",
          "name": "",
          "type": "string"
        }
      ],
      "stateMutability": "view",
      "type": "function"
    },
    {
      "inputs": [
        {
          "internalType": "address",
          "name": "",
          "type": "address"
        },
        {
          "internalType": "address",
          "name": "",
          "type": "address"
        },
        {
          "internalType": "uint256[]",
          "name": "",
          "type": "uint256[]"
        },
        {
          "internalType": "uint256[]",
          "name": "",
          "type": "uint256[]"
        },
        {
          "internalType": "bytes",
          "name": "",
          "type": "bytes"
        }
      ],
      "name": "onERC1155BatchReceived",
      "outputs": [
        {
          "internalType": "bytes4",
          "name": "",
          "type": "bytes4"
        }
      ],
      "stateMutability": "nonpayable",
      "type": "function"
    },
    {
      "inputs": [
        {
          "internalType": "address",
          "name": "",
          "type": "address"
        },
        {
          "internalType": "address",
          "name": "",
          "type": "address"
        },
        {
          "internalType": "uint256",
          "name": "",
          "type": "uint256"
        },
        {
          "internalType": "uint256",
          "name": "",
          "type": "uint256"
        },
        {
          "internalType": "bytes",
          "name": "",
          "type": "bytes"
        }
      ],
      "name": "onERC1155Received",
      "outputs": [
        {
          "internalType": "bytes4",
          "name": "",
          "type": "bytes4"
        }
      ],
      "stateMutability": "nonpayable",
      "type": "function"
    },
    {
      "inputs": [
        {
          "internalType": "address",
          "name": "",
          "type": "address"
        },
        {
          "internalType": "address",
          "name": "",
          "type": "address"
        },
        {
          "internalType": "uint256",
          "name": "",
          "type": "uint256"
        },
        {
          "internalType": "bytes",
          "name": "",
          "type": "bytes"
        }
      ],
      "name": "onERC721Received",
      "outputs": [
        {
          "internalType": "bytes4",
          "name": "",
          "type": "bytes4"
        }
      ],
      "stateMutability": "nonpayable",
      "type": "function"
    },
    {
      "inputs": [
        {
          "internalType": "uint256",
          "name": "proposalId",
          "type": "uint256"
        }
      ],
      "name": "proposalDeadline",
      "outputs": [
        {
          "internalType": "uint256",
          "name": "",
          "type": "uint256"
        }
      ],
      "stateMutability": "view",
      "type": "function"
    },
    {
      "inputs": [
        {
          "internalType": "uint256",
          "name": "proposalId",
          "type": "uint256"
        }
      ],
      "name": "proposalEta",
      "outputs": [
        {
          "internalType": "uint256",
          "name": "",
          "type": "uint256"
        }
      ],
      "stateMutability": "view",
      "type": "function"
    },
    {
      "inputs": [
        {
          "internalType": "uint256",
          "name": "proposalId",
          "type": "uint256"
        }
      ],
      "name": "proposalProposer",
      "outputs": [
        {
          "internalType": "address",
          "name": "",
          "type": "address"
        }
      ],
      "stateMutability": "view",
      "type": "function"
    },
    {
      "inputs": [
        {
          "internalType": "uint256",
          "name": "proposalId",
          "type": "uint256"
        }
      ],
      "name": "proposalSnapshot",
      "outputs": [
        {
          "internalType": "uint256",
          "name": "",
          "type": "uint256"
        }
      ],
      "stateMutability": "view",
      "type": "function"
    },
    {
      "inputs": [],
      "name": "proposalThreshold",
      "outputs": [
        {
          "internalType": "uint256",
          "name": "",
          "type": "uint256"
        }
      ],
      "stateMutability": "view",
      "type": "function"
    },
    {
      "inputs": [
        {
          "internalType": "uint256",
          "name": "proposalId",
          "type": "uint256"
        }
      ],
      "name": "proposalVotes",
      "outputs": [
        {
          "internalType": "uint256",
          "name": "againstVotes",
          "type": "uint256"
        },
        {
          "internalType": "uint256",
          "name": "forVotes",
          "type": "uint256"
        },
        {
          "internalType": "uint256",
          "name": "abstainVotes",
          "type": "uint256"
        }
      ],
      "stateMutability": "view",
      "type": "function"
    },
    {
      "inputs": [
        {
          "internalType": "address[]",
          "name": "targets",
          "type": "address[]"
        },
        {
          "internalType": "uint256[]",
          "name": "values",
          "type": "uint256[]"
        },
        {
          "internalType": "bytes[]",
          "name": "calldatas",
          "type": "bytes[]"
        },
        {
          "internalType": "string",
          "name": "description",
          "type": "string"
        }
      ],
      "name": "propose",
      "outputs": [
        {
          "internalType": "uint256",
          "name": "",
          "type": "uint256"
        }
      ],
      "stateMutability": "nonpayable",
      "type": "function"
    },
    {
      "inputs": [
        {
          "internalType": "address[]",
          "name": "targets",
          "type": "address[]"
        },
        {
          "internalType": "uint256[]",
          "name": "values",
          "type": "uint256[]"
        },
        {
          "internalType": "bytes[]",
          "name": "calldatas",
          "type": "bytes[]"
        },
        {
          "internalType": "bytes32",
          "name": "descriptionHash",
          "type": "bytes32"
        }
      ],
      "name": "queue",
      "outputs": [
        {
          "internalType": "uint256",
          "name": "",
          "type": "uint256"
        }
      ],
      "stateMutability": "nonpayable",
      "type": "function"
    },
    {
      "inputs": [
        {
          "internalType": "uint256",
          "name": "blockNumber",
          "type": "uint256"
        }
      ],
      "name": "quorum",
      "outputs": [
        {
          "internalType": "uint256",
          "name": "",
          "type": "uint256"
        }
      ],
      "stateMutability": "view",
      "type": "function"
    },
    {
      "inputs": [],
      "name": "quorumDenominator",
      "outputs": [
        {
          "internalType": "uint256",
          "name": "",
          "type": "uint256"
        }
      ],
      "stateMutability": "view",
      "type": "function"
    },
    {
      "inputs": [
        {
          "internalType": "uint256",
          "name": "timepoint",
          "type": "uint256"
        }
      ],
      "name": "quorumNumerator",
      "outputs": [
        {
          "internalType": "uint256",
          "name": "",
          "type": "uint256"
        }
      ],
      "stateMutability": "view",
      "type": "function"
    },
    {
      "inputs": [],
      "name": "quorumNumerator",
      "outputs": [
        {
          "internalType": "uint256",
          "name": "",
          "type": "uint256"
        }
      ],
      "stateMutability": "view",
      "type": "function"
    },
    {
      "inputs": [
        {
          "internalType": "address",
          "name": "target",
          "type": "address"
        },
        {
          "internalType": "uint256",
          "name": "value",
          "type": "uint256"
        },
        {
          "internalType": "bytes",
          "name": "data",
          "type": "bytes"
        }
      ],
      "name": "relay",
      "outputs": [],
      "stateMutability": "payable",
      "type": "function"
    },
    {
      "inputs": [
        {
          "internalType": "uint256",
          "name": "newProposalThreshold",
          "type": "uint256"
        }
      ],
      "name": "setProposalThreshold",
      "outputs": [],
      "stateMutability": "nonpayable",
      "type": "function"
    },
    {
      "inputs": [
        {
          "internalType": "uint256",
          "name": "newVotingDelay",
          "type": "uint256"
        }
      ],
      "name": "setVotingDelay",
      "outputs": [],
      "stateMutability": "nonpayable",
      "type": "function"
    },
    {
      "inputs": [
        {
          "internalType": "uint256",
          "name": "newVotingPeriod",
          "type": "uint256"
        }
      ],
      "name": "setVotingPeriod",
      "outputs": [],
      "stateMutability": "nonpayable",
      "type": "function"
    },
    {
      "inputs": [
        {
          "internalType": "uint256",
          "name": "proposalId",
          "type": "uint256"
        }
      ],
      "name": "state",
      "outputs": [
        {
          "internalType": "enum IGovernor.ProposalState",
          "name": "",
          "type": "uint8"
        }
      ],
      "stateMutability": "view",
      "type": "function"
    },
    {
      "inputs": [
        {
          "internalType": "bytes4",
          "name": "interfaceId",
          "type": "bytes4"
        }
      ],
      "name": "supportsInterface",
      "outputs": [
        {
          "internalType": "bool",
          "name": "",
          "type": "bool"
        }
      ],
      "stateMutability": "view",
      "type": "function"
    },
    {
      "inputs": [],
      "name": "timelock",
      "outputs": [
        {
          "internalType": "address",
          "name": "",
          "type": "address"
        }
      ],
      "stateMutability": "view",
      "type": "function"
    },
    {
      "inputs": [],
      "name": "token",
      "outputs": [
        {
          "internalType": "contract IERC5805",
          "name": "",
          "type": "address"
        }
      ],
      "stateMutability": "view",
      "type": "function"
    },
    {
      "inputs": [
        {
          "internalType": "uint256",
          "name": "newQuorumNumerator",
          "type": "uint256"
        }
      ],
      "name": "updateQuorumNumerator",
      "outputs": [],
      "stateMutability": "nonpayable",
      "type": "function"
    },
    {
      "inputs": [
        {
          "internalType": "contract TimelockController",
          "name": "newTimelock",
          "type": "address"
        }
      ],
      "name": "updateTimelock",
      "outputs": [],
      "stateMutability": "nonpayable",
      "type": "function"
    },
    {
      "inputs": [],
      "name": "version",
      "outputs": [
        {
          "internalType": "string",
          "name": "",
          "type": "string"
        }
      ],
      "stateMutability": "view",
      "type": "function"
    },
    {
      "inputs": [],
      "name": "votingDelay",
      "outputs": [
        {
          "internalType": "uint256",
          "name": "",
          "type": "uint256"
        }
      ],
      "stateMutability": "view",
      "type": "function"
    },
    {
      "inputs": [],
      "name": "votingPeriod",
      "outputs": [
        {
          "internalType": "uint256",
          "name": "",
          "type": "uint256"
        }
      ],
      "stateMutability": "view",
      "type": "function"
    },
    {
      "stateMutability": "payable",
      "type": "receive"
    }
  ],
  "bytecode": "0x6101806040523480156200001257600080fd5b50604051620095e4380380620095e4833981810160405281019062000038919062000e86565b838386838560006040518060400160405280601081526020017f476f7665726e6f72436f6e7472616374000000000000000000000000000000008152508062000086620001e460201b60201c565b6200009c6000836200022160201b90919060201c565b6101208181525050620000ba6001826200022160201b90919060201c565b6101408181525050818051906020012060e08181525050808051906020012061010081815250504660a08181525050620000f96200027960201b60201c565b608081815250503073ffffffffffffffffffffffffffffffffffffffff1660c08173ffffffffffffffffffffffffffffffffffffffff1681525050505080600290816200014791906200117e565b50506200015a83620002d660201b60201c565b6200016b826200031d60201b60201c565b6200017c81620003aa60201b60201c565b5050508073ffffffffffffffffffffffffffffffffffffffff166101608173ffffffffffffffffffffffffffffffffffffffff168152505050620001c681620003f160201b60201c565b50620001d881620005ff60201b60201c565b5050505050506200191d565b60606040518060400160405280600181526020017f3100000000000000000000000000000000000000000000000000000000000000815250905090565b600060208351101562000247576200023f83620006a060201b60201c565b905062000273565b8262000259836200070d60201b60201c565b60000190816200026a91906200117e565b5060ff60001b90505b92915050565b60007f8b73c3c69bb8fe3d512ecc4cf759cc79239f7b179b0ffacaa9a75d522b39400f60e051610100514630604051602001620002bb959493929190620012a2565b60405160208183030381529060405280519060200120905090565b7fc565b045403dc03c2eea82b81a0465edad9e2e7fc4d97e11421c209da93d7a93600654826040516200030b929190620012ff565b60405180910390a18060068190555050565b6000811162000363576040517f08c379a00000000000000000000000000000000000000000000000000000000081526004016200035a90620013b3565b60405180910390fd5b7f7e3f7f0708a84de9203036abaa450dccc85ad5ff52f78c170f3edb55cf5e88286007548260405162000398929190620012ff565b60405180910390a18060078190555050565b7fccb45da8d5717e6c4544694297c4ba5cf151d455c9bb0ed4fc7a38411bc0546160085482604051620003df929190620012ff565b60405180910390a18060088190555050565b620004016200071760201b60201c565b81111562000446576040517f08c379a00000000000000000000000000000000000000000000000000000000081526004016200043d9062001471565b60405180910390fd5b6000620004586200072060201b60201c565b9050600081141580156200047457506000600b60000180549050145b156200056f57600b6000016040518060400160405280600063ffffffff168152602001620004a8846200077160201b60201c565b7bffffffffffffffffffffffffffffffffffffffffffffffffffffffff168152509080600181540180825580915050600190039060005260206000200160009091909190915060008201518160000160006101000a81548163ffffffff021916908363ffffffff16021790555060208201518160000160046101000a8154817bffffffffffffffffffffffffffffffffffffffffffffffffffffffff02191690837bffffffffffffffffffffffffffffffffffffffffffffffffffffffff16021790555050505b620005be6200059b62000587620007df60201b60201c565b65ffffffffffff166200087560201b60201c565b620005ac846200077160201b60201c565b600b620008cb60201b9092919060201c565b50507f0553476bf02ef2726e8ce5ced78d63e26e602e4a2257b1f559418e24b46339978183604051620005f3929190620012ff565b60405180910390a15050565b7f08f74ea46ef7894f65eabfb5e6e695de773a000b47c529ab559178069b226401600c60009054906101000a900473ffffffffffffffffffffffffffffffffffffffff16826040516200065492919062001493565b60405180910390a180600c60006101000a81548173ffffffffffffffffffffffffffffffffffffffff021916908373ffffffffffffffffffffffffffffffffffffffff16021790555050565b600080829050601f81511115620006f057826040517f305a27a9000000000000000000000000000000000000000000000000000000008152600401620006e791906200153e565b60405180910390fd5b805181620006fe9062001594565b60001c1760001b915050919050565b6000819050919050565b60006064905090565b600080600b6000018054905014620007685762000744600b620008f060201b60201c565b7bffffffffffffffffffffffffffffffffffffffffffffffffffffffff166200076c565b600a545b905090565b60007bffffffffffffffffffffffffffffffffffffffffffffffffffffffff8016821115620007d7576040517f08c379a0000000000000000000000000000000000000000000000000000000008152600401620007ce906200167a565b60405180910390fd5b819050919050565b60006101605173ffffffffffffffffffffffffffffffffffffffff166391ddadf46040518163ffffffff1660e01b8152600401602060405180830381865afa9250505080156200084f57506040513d601f19601f820116820180604052508101906200084c9190620016df565b60015b6200086d5762000865436200096660201b60201c565b905062000872565b809150505b90565b600063ffffffff8016821115620008c3576040517f08c379a0000000000000000000000000000000000000000000000000000000008152600401620008ba9062001787565b60405180910390fd5b819050919050565b600080620008e4856000018585620009be60201b60201c565b91509150935093915050565b60008082600001805490509050600081146200095b5762000929836000016001836200091d9190620017d8565b62000d5f60201b60201c565b60000160049054906101000a90047bffffffffffffffffffffffffffffffffffffffffffffffffffffffff166200095e565b60005b915050919050565b600065ffffffffffff8016821115620009b6576040517f08c379a0000000000000000000000000000000000000000000000000000000008152600401620009ad9062001889565b60405180910390fd5b819050919050565b600080600085805490509050600081111562000c6f576000620009f687600184620009ea9190620017d8565b62000d5f60201b60201c565b6040518060400160405290816000820160009054906101000a900463ffffffff1663ffffffff1663ffffffff1681526020016000820160049054906101000a90047bffffffffffffffffffffffffffffffffffffffffffffffffffffffff167bffffffffffffffffffffffffffffffffffffffffffffffffffffffff167bffffffffffffffffffffffffffffffffffffffffffffffffffffffff168152505090508563ffffffff16816000015163ffffffff16111562000aed576040517f08c379a000000000000000000000000000000000000000000000000000000000815260040162000ae490620018fb565b60405180910390fd5b8563ffffffff16816000015163ffffffff160362000b7d578462000b268860018562000b1a9190620017d8565b62000d5f60201b60201c565b60000160046101000a8154817bffffffffffffffffffffffffffffffffffffffffffffffffffffffff02191690837bffffffffffffffffffffffffffffffffffffffffffffffffffffffff16021790555062000c5d565b8660405180604001604052808863ffffffff168152602001877bffffffffffffffffffffffffffffffffffffffffffffffffffffffff168152509080600181540180825580915050600190039060005260206000200160009091909190915060008201518160000160006101000a81548163ffffffff021916908363ffffffff16021790555060208201518160000160046101000a8154817bffffffffffffffffffffffffffffffffffffffffffffffffffffffff02191690837bffffffffffffffffffffffffffffffffffffffffffffffffffffffff16021790555050505b80602001518593509350505062000d57565b8560405180604001604052808763ffffffff168152602001867bffffffffffffffffffffffffffffffffffffffffffffffffffffffff168152509080600181540180825580915050600190039060005260206000200160009091909190915060008201518160000160006101000a81548163ffffffff021916908363ffffffff16021790555060208201518160000160046101000a8154817bffffffffffffffffffffffffffffffffffffffffffffffffffffffff02191690837bffffffffffffffffffffffffffffffffffffffffffffffffffffffff160217905550505060008492509250505b935093915050565b60008260005281602060002001905092915050565b600080fd5b600073ffffffffffffffffffffffffffffffffffffffff82169050919050565b600062000da68262000d79565b9050919050565b600062000dba8262000d99565b9050919050565b62000dcc8162000dad565b811462000dd857600080fd5b50565b60008151905062000dec8162000dc1565b92915050565b600062000dff8262000d79565b9050919050565b600062000e138262000df2565b9050919050565b62000e258162000e06565b811462000e3157600080fd5b50565b60008151905062000e458162000e1a565b92915050565b6000819050919050565b62000e608162000e4b565b811462000e6c57600080fd5b50565b60008151905062000e808162000e55565b92915050565b600080600080600060a0868803121562000ea55762000ea462000d74565b5b600062000eb58882890162000ddb565b955050602062000ec88882890162000e34565b945050604062000edb8882890162000e6f565b935050606062000eee8882890162000e6f565b925050608062000f018882890162000e6f565b9150509295509295909350565b600081519050919050565b7f4e487b7100000000000000000000000000000000000000000000000000000000600052604160045260246000fd5b7f4e487b7100000000000000000000000000000000000000000000000000000000600052602260045260246000fd5b6000600282049050600182168062000f9057607f821691505b60208210810362000fa65762000fa562000f48565b5b50919050565b60008190508160005260206000209050919050565b60006020601f8301049050919050565b600082821b905092915050565b600060088302620010107fffffffffffffffffffffffffffffffffffffffffffffffffffffffffffffffff8262000fd1565b6200101c868362000fd1565b95508019841693508086168417925050509392505050565b6000819050919050565b60006200105f62001059620010538462000e4b565b62001034565b62000e4b565b9050919050565b6000819050919050565b6200107b836200103e565b620010936200108a8262001066565b84845462000fde565b825550505050565b600090565b620010aa6200109b565b620010b781848462001070565b505050565b5b81811015620010df57620010d3600082620010a0565b600181019050620010bd565b5050565b601f8211156200112e57620010f88162000fac565b620011038462000fc1565b8101602085101562001113578190505b6200112b620011228562000fc1565b830182620010bc565b50505b505050565b600082821c905092915050565b6000620011536000198460080262001133565b1980831691505092915050565b60006200116e838362001140565b9150826002028217905092915050565b620011898262000f0e565b67ffffffffffffffff811115620011a557620011a462000f19565b5b620011b1825462000f77565b620011be828285620010e3565b600060209050601f831160018114620011f65760008415620011e1578287015190505b620011ed858262001160565b8655506200125d565b601f198416620012068662000fac565b60005b82811015620012305784890151825560018201915060208501945060208101905062001209565b868310156200125057848901516200124c601f89168262001140565b8355505b6001600288020188555050505b505050505050565b6000819050919050565b6200127a8162001265565b82525050565b6200128b8162000e4b565b82525050565b6200129c8162000d99565b82525050565b600060a082019050620012b960008301886200126f565b620012c860208301876200126f565b620012d760408301866200126f565b620012e6606083018562001280565b620012f5608083018462001291565b9695505050505050565b600060408201905062001316600083018562001280565b62001325602083018462001280565b9392505050565b600082825260208201905092915050565b7f476f7665726e6f7253657474696e67733a20766f74696e6720706572696f642060008201527f746f6f206c6f7700000000000000000000000000000000000000000000000000602082015250565b60006200139b6027836200132c565b9150620013a8826200133d565b604082019050919050565b60006020820190508181036000830152620013ce816200138c565b9050919050565b7f476f7665726e6f72566f74657351756f72756d4672616374696f6e3a2071756f60008201527f72756d4e756d657261746f72206f7665722071756f72756d44656e6f6d696e6160208201527f746f720000000000000000000000000000000000000000000000000000000000604082015250565b6000620014596043836200132c565b91506200146682620013d5565b606082019050919050565b600060208201905081810360008301526200148c816200144a565b9050919050565b6000604082019050620014aa600083018562001291565b620014b9602083018462001291565b9392505050565b60005b83811015620014e0578082015181840152602081019050620014c3565b60008484015250505050565b6000601f19601f8301169050919050565b60006200150a8262000f0e565b6200151681856200132c565b935062001528818560208601620014c0565b6200153381620014ec565b840191505092915050565b600060208201905081810360008301526200155a8184620014fd565b905092915050565b600081519050919050565b6000819050602082019050919050565b60006200158b825162001265565b80915050919050565b6000620015a18262001562565b82620015ad846200156d565b9050620015ba816200157d565b92506020821015620015fd57620015f87fffffffffffffffffffffffffffffffffffffffffffffffffffffffffffffffff8360200360080262000fd1565b831692505b5050919050565b7f53616665436173743a2076616c756520646f65736e27742066697420696e203260008201527f3234206269747300000000000000000000000000000000000000000000000000602082015250565b6000620016626027836200132c565b91506200166f8262001604565b604082019050919050565b60006020820190508181036000830152620016958162001653565b9050919050565b600065ffffffffffff82169050919050565b620016b9816200169c565b8114620016c557600080fd5b50565b600081519050620016d981620016ae565b92915050565b600060208284031215620016f857620016f762000d74565b5b60006200170884828501620016c8565b91505092915050565b7f53616665436173743a2076616c756520646f65736e27742066697420696e203360008201527f3220626974730000000000000000000000000000000000000000000000000000602082015250565b60006200176f6026836200132c565b91506200177c8262001711565b604082019050919050565b60006020820190508181036000830152620017a28162001760565b9050919050565b7f4e487b7100000000000000000000000000000000000000000000000000000000600052601160045260246000fd5b6000620017e58262000e4b565b9150620017f28362000e4b565b92508282039050818111156200180d576200180c620017a9565b5b92915050565b7f53616665436173743a2076616c756520646f65736e27742066697420696e203460008201527f3820626974730000000000000000000000000000000000000000000000000000602082015250565b6000620018716026836200132c565b91506200187e8262001813565b604082019050919050565b60006020820190508181036000830152620018a48162001862565b9050919050565b7f436865636b706f696e743a2064656372656173696e67206b6579730000000000600082015250565b6000620018e3601b836200132c565b9150620018f082620018ab565b602082019050919050565b600060208201905081810360008301526200191681620018d4565b9050919050565b60805160a05160c05160e05161010051610120516101405161016051617c456200199f6000396000818161161801528181611beb01528181612394015281816133eb01526136c101526000611b2c01526000611af8015260006147ff015260006147de01526000613994015260006139ea01526000613a130152617c456000f3fe6080604052600436106102815760003560e01c80637b3c71d31161014f578063c01f9e37116100c1578063ea0217cf1161007a578063ea0217cf14610b2c578063eb9019d414610b55578063ece40cc114610b92578063f23a6e6114610bbb578063f8ce560a14610bf8578063fc0c546a14610c35576102fd565b8063c01f9e3714610a15578063c28bc2fa14610a52578063c59057e414610a6e578063d33219b414610aab578063dd4e2ba514610ad6578063deaaa7cc14610b01576102fd565b80639a802a6d116101135780639a802a6d146108df578063a7713a701461091c578063a890c91014610947578063ab58fb8e14610970578063b58131b0146109ad578063bc197c81146109d8576102fd565b80637b3c71d3146107de5780637d5e81e21461081b57806384b0196e1461085857806391ddadf41461088957806397c3d334146108b4576102fd565b80633932abb1116101f3578063544ffc9c116101ac578063544ffc9c1461069457806354fd4d50146106d357806356781388146106fe5780635f398a141461073b57806360c4247f1461077857806370b0f660146107b5576102fd565b80633932abb11461054a5780633bccf4fd146105755780633e4f49e6146105b257806343859632146105ef578063452115d61461062c5780634bf5d7e914610669576102fd565b8063143489d011610245578063143489d0146103fb578063150b7a0214610438578063160cbed7146104755780632656227d146104b25780632d63f693146104e25780632fe3e2611461051f576102fd565b806301ffc9a71461030257806302a251a31461033f578063034201811461036a57806306f3f9e6146103a757806306fdde03146103d0576102fd565b366102fd573073ffffffffffffffffffffffffffffffffffffffff166102a5610c60565b73ffffffffffffffffffffffffffffffffffffffff16146102fb576040517f08c379a00000000000000000000000000000000000000000000000000000000081526004016102f290615008565b60405180910390fd5b005b600080fd5b34801561030e57600080fd5b5061032960048036038101906103249190615094565b610c6f565b60405161033691906150dc565b60405180910390f35b34801561034b57600080fd5b50610354610c81565b6040516103619190615110565b60405180910390f35b34801561037657600080fd5b50610391600480360381019061038c919061536c565b610c90565b60405161039e9190615110565b60405180910390f35b3480156103b357600080fd5b506103ce60048036038101906103c9919061544a565b610d75565b005b3480156103dc57600080fd5b506103e5610e6c565b6040516103f291906154e5565b60405180910390f35b34801561040757600080fd5b50610422600480360381019061041d919061544a565b610efe565b60405161042f9190615548565b60405180910390f35b34801561044457600080fd5b5061045f600480360381019061045a919061558f565b610f3e565b60405161046c9190615621565b60405180910390f35b34801561048157600080fd5b5061049c600480360381019061049791906158a3565b610f52565b6040516104a99190615110565b60405180910390f35b6104cc60048036038101906104c791906158a3565b61120c565b6040516104d99190615110565b60405180910390f35b3480156104ee57600080fd5b506105096004803603810190610504919061544a565b61135a565b6040516105169190615110565b60405180910390f35b34801561052b57600080fd5b50610534611398565b604051610541919061596d565b60405180910390f35b34801561055657600080fd5b5061055f6113bc565b60405161056c9190615110565b60405180910390f35b34801561058157600080fd5b5061059c60048036038101906105979190615988565b6113cb565b6040516105a99190615110565b60405180910390f35b3480156105be57600080fd5b506105d960048036038101906105d4919061544a565b611455565b6040516105e69190615a7a565b60405180910390f35b3480156105fb57600080fd5b5061061660048036038101906106119190615a95565b611467565b60405161062391906150dc565b60405180910390f35b34801561063857600080fd5b50610653600480360381019061064e91906158a3565b6114d2565b6040516106609190615110565b60405180910390f35b34801561067557600080fd5b5061067e611614565b60405161068b91906154e5565b60405180910390f35b3480156106a057600080fd5b506106bb60048036038101906106b6919061544a565b6116ec565b6040516106ca93929190615ad5565b60405180910390f35b3480156106df57600080fd5b506106e8611724565b6040516106f591906154e5565b60405180910390f35b34801561070a57600080fd5b5061072560048036038101906107209190615b0c565b611761565b6040516107329190615110565b60405180910390f35b34801561074757600080fd5b50610762600480360381019061075d9190615b4c565b611792565b60405161076f9190615110565b60405180910390f35b34801561078457600080fd5b5061079f600480360381019061079a919061544a565b6117fc565b6040516107ac9190615110565b60405180910390f35b3480156107c157600080fd5b506107dc60048036038101906107d7919061544a565b61196e565b005b3480156107ea57600080fd5b5061080560048036038101906108009190615bf0565b611a65565b6040516108129190615110565b60405180910390f35b34801561082757600080fd5b50610842600480360381019061083d9190615d05565b611acd565b60405161084f9190615110565b60405180910390f35b34801561086457600080fd5b5061086d611ae5565b6040516108809796959493929190615ed5565b60405180910390f35b34801561089557600080fd5b5061089e611be7565b6040516108ab9190615f7a565b60405180910390f35b3480156108c057600080fd5b506108c9611c8d565b6040516108d69190615110565b60405180910390f35b3480156108eb57600080fd5b5061090660048036038101906109019190615f95565b611c96565b6040516109139190615110565b60405180910390f35b34801561092857600080fd5b50610931611cac565b60405161093e9190615110565b60405180910390f35b34801561095357600080fd5b5061096e60048036038101906109699190616054565b611cf3565b005b34801561097c57600080fd5b506109976004803603810190610992919061544a565b611dea565b6040516109a49190615110565b60405180910390f35b3480156109b957600080fd5b506109c2611eb7565b6040516109cf9190615110565b60405180910390f35b3480156109e457600080fd5b506109ff60048036038101906109fa9190616081565b611ec6565b604051610a0c9190615621565b60405180910390f35b348015610a2157600080fd5b50610a3c6004803603810190610a37919061544a565b611edb565b604051610a499190615110565b60405180910390f35b610a6c6004803603810190610a6791906161a6565b611f19565b005b348015610a7a57600080fd5b50610a956004803603810190610a9091906158a3565b6120a2565b604051610aa29190615110565b60405180910390f35b348015610ab757600080fd5b50610ac06120de565b604051610acd9190615548565b60405180910390f35b348015610ae257600080fd5b50610aeb612108565b604051610af891906154e5565b60405180910390f35b348015610b0d57600080fd5b50610b16612145565b604051610b23919061596d565b60405180910390f35b348015610b3857600080fd5b50610b536004803603810190610b4e919061544a565b612169565b005b348015610b6157600080fd5b50610b7c6004803603810190610b77919061621a565b612260565b604051610b899190615110565b60405180910390f35b348015610b9e57600080fd5b50610bb96004803603810190610bb4919061544a565b612274565b005b348015610bc757600080fd5b50610be26004803603810190610bdd919061625a565b61236b565b604051610bef9190615621565b60405180910390f35b348015610c0457600080fd5b50610c1f6004803603810190610c1a919061544a565b612380565b604051610c2c9190615110565b60405180910390f35b348015610c4157600080fd5b50610c4a612392565b604051610c579190616350565b60405180910390f35b6000610c6a6123b6565b905090565b6000610c7a826123e0565b9050919050565b6000610c8b61245a565b905090565b600080610d13610d0b7fb3b3f3b703cd84ce352197dcff232b1b5d3cfb2025ce47cf04742d0651f1af888c8c8c8c604051610ccc92919061639b565b60405180910390208b80519060200120604051602001610cf09594939291906163c3565b60405160208183030381529060405280519060200120612464565b86868661247e565b9050610d668a828b8b8b8080601f016020809104026020016040519081016040528093929190818152602001838380828437600081840152601f19601f820116905080830192505050505050508a6124a9565b91505098975050505050505050565b610d7d610c60565b73ffffffffffffffffffffffffffffffffffffffff16610d9b612635565b73ffffffffffffffffffffffffffffffffffffffff1614610df1576040517f08c379a0000000000000000000000000000000000000000000000000000000008152600401610de890616462565b60405180910390fd5b3073ffffffffffffffffffffffffffffffffffffffff16610e10610c60565b73ffffffffffffffffffffffffffffffffffffffff1614610e60576000610e3561263d565b604051610e4392919061639b565b604051809103902090505b80610e59600461264a565b03610e4e57505b610e6981612726565b50565b606060028054610e7b906164b1565b80601f0160208091040260200160405190810160405280929190818152602001828054610ea7906164b1565b8015610ef45780601f10610ec957610100808354040283529160200191610ef4565b820191906000526020600020905b815481529060010190602001808311610ed757829003601f168201915b5050505050905090565b60006003600083815260200190815260200160002060000160089054906101000a900473ffffffffffffffffffffffffffffffffffffffff169050919050565b600063150b7a0260e01b9050949350505050565b600080610f61868686866120a2565b905060046007811115610f7757610f76615a03565b5b610f8082611455565b6007811115610f9257610f91615a03565b5b14610fd2576040517f08c379a0000000000000000000000000000000000000000000000000000000008152600401610fc990616554565b60405180910390fd5b6000600c60009054906101000a900473ffffffffffffffffffffffffffffffffffffffff1673ffffffffffffffffffffffffffffffffffffffff1663f27a0c926040518163ffffffff1660e01b8152600401602060405180830381865afa158015611041573d6000803e3d6000fd5b505050506040513d601f19601f820116820180604052508101906110659190616589565b9050600c60009054906101000a900473ffffffffffffffffffffffffffffffffffffffff1673ffffffffffffffffffffffffffffffffffffffff1663b1c5f4278888886000896040518663ffffffff1660e01b81526004016110cb9594939291906167d3565b602060405180830381865afa1580156110e8573d6000803e3d6000fd5b505050506040513d601f19601f8201168201806040525081019061110c9190616850565b600d600084815260200190815260200160002081905550600c60009054906101000a900473ffffffffffffffffffffffffffffffffffffffff1673ffffffffffffffffffffffffffffffffffffffff16638f2a0bb0888888600089876040518763ffffffff1660e01b81526004016111899695949392919061687d565b600060405180830381600087803b1580156111a357600080fd5b505af11580156111b7573d6000803e3d6000fd5b505050507f9a2e42fd6722813d69113e7d0079d3d940171428df7373df9c7f7617cfda28928282426111e99190616922565b6040516111f7929190616956565b60405180910390a18192505050949350505050565b60008061121b868686866120a2565b9050600061122882611455565b90506004600781111561123e5761123d615a03565b5b81600781111561125157611250615a03565b5b148061128157506005600781111561126c5761126b615a03565b5b81600781111561127f5761127e615a03565b5b145b6112c0576040517f08c379a00000000000000000000000000000000000000000000000000000000081526004016112b790616554565b60405180910390fd5b60016003600084815260200190815260200160002060020160006101000a81548160ff0219169083151502179055507f712ae1383f79ac853f8d882153778e0260ef8f03b504e2866e0593e04d2b291f8260405161131e9190615110565b60405180910390a161133382888888886128fb565b61134082888888886129de565b61134d82888888886129f2565b8192505050949350505050565b60006003600083815260200190815260200160002060000160009054906101000a900467ffffffffffffffff1667ffffffffffffffff169050919050565b7fb3b3f3b703cd84ce352197dcff232b1b5d3cfb2025ce47cf04742d0651f1af8881565b60006113c6612a4d565b905090565b60008061142c6114247f150214d74d59b7d1e90c73fc22ef3d991dd0a76b046543d4d80ab92d2a50328f89896040516020016114099392919061697f565b60405160208183030381529060405280519060200120612464565b86868661247e565b905061144987828860405180602001604052806000815250612a57565b91505095945050505050565b600061146082612a77565b9050919050565b60006009600084815260200190815260200160002060030160008373ffffffffffffffffffffffffffffffffffffffff1673ffffffffffffffffffffffffffffffffffffffff16815260200190815260200160002060009054906101000a900460ff16905092915050565b6000806114e1868686866120a2565b9050600060078111156114f7576114f6615a03565b5b61150082611455565b600781111561151257611511615a03565b5b14611552576040517f08c379a000000000000000000000000000000000000000000000000000000000815260040161154990616a02565b60405180910390fd5b6003600082815260200190815260200160002060000160089054906101000a900473ffffffffffffffffffffffffffffffffffffffff1673ffffffffffffffffffffffffffffffffffffffff166115a7612635565b73ffffffffffffffffffffffffffffffffffffffff16146115fd576040517f08c379a00000000000000000000000000000000000000000000000000000000081526004016115f490616a94565b60405180910390fd5b61160986868686612c4a565b915050949350505050565b60607f000000000000000000000000000000000000000000000000000000000000000073ffffffffffffffffffffffffffffffffffffffff16634bf5d7e96040518163ffffffff1660e01b8152600401600060405180830381865afa9250505080156116a357506040513d6000823e3d601f19601f820116820180604052508101906116a09190616b24565b60015b6116e4576040518060400160405280601d81526020017f6d6f64653d626c6f636b6e756d6265722666726f6d3d64656661756c7400000081525090506116e9565b809150505b90565b600080600080600960008681526020019081526020016000209050806000015481600101548260020154935093509350509193909250565b60606040518060400160405280600181526020017f3100000000000000000000000000000000000000000000000000000000000000815250905090565b60008061176c612635565b905061178984828560405180602001604052806000815250612a57565b91505092915050565b60008061179d612635565b90506117f087828888888080601f016020809104026020016040519081016040528093929190818152602001838380828437600081840152601f19601f82011690508083019250505050505050876124a9565b91505095945050505050565b600080600b6000018054905090506000810361181d57600a54915050611969565b6000600b6000016001836118319190616b6d565b8154811061184257611841616ba1565b5b906000526020600020016040518060400160405290816000820160009054906101000a900463ffffffff1663ffffffff1663ffffffff1681526020016000820160049054906101000a90047bffffffffffffffffffffffffffffffffffffffffffffffffffffffff167bffffffffffffffffffffffffffffffffffffffffffffffffffffffff167bffffffffffffffffffffffffffffffffffffffffffffffffffffffff1681525050905083816000015163ffffffff161161192a5780602001517bffffffffffffffffffffffffffffffffffffffffffffffffffffffff1692505050611969565b61194661193685612c62565b600b612cb590919063ffffffff16565b7bffffffffffffffffffffffffffffffffffffffffffffffffffffffff16925050505b919050565b611976610c60565b73ffffffffffffffffffffffffffffffffffffffff16611994612635565b73ffffffffffffffffffffffffffffffffffffffff16146119ea576040517f08c379a00000000000000000000000000000000000000000000000000000000081526004016119e190616462565b60405180910390fd5b3073ffffffffffffffffffffffffffffffffffffffff16611a09610c60565b73ffffffffffffffffffffffffffffffffffffffff1614611a59576000611a2e61263d565b604051611a3c92919061639b565b604051809103902090505b80611a52600461264a565b03611a4757505b611a6281612dab565b50565b600080611a70612635565b9050611ac286828787878080601f016020809104026020016040519081016040528093929190818152602001838380828437600081840152601f19601f82011690508083019250505050505050612a57565b915050949350505050565b6000611adb85858585612df0565b9050949350505050565b600060608060008060006060611b2560007f00000000000000000000000000000000000000000000000000000000000000006132e290919063ffffffff16565b611b5960017f00000000000000000000000000000000000000000000000000000000000000006132e290919063ffffffff16565b46306000801b600067ffffffffffffffff811115611b7a57611b7961520b565b5b604051908082528060200260200182016040528015611ba85781602001602082028036833780820191505090505b507f0f00000000000000000000000000000000000000000000000000000000000000959493929190965096509650965096509650965090919293949596565b60007f000000000000000000000000000000000000000000000000000000000000000073ffffffffffffffffffffffffffffffffffffffff166391ddadf46040518163ffffffff1660e01b8152600401602060405180830381865afa925050508015611c7157506040513d601f19601f82011682018060405250810190611c6e9190616bfc565b60015b611c8557611c7e43613392565b9050611c8a565b809150505b90565b60006064905090565b6000611ca38484846133e7565b90509392505050565b600080600b6000018054905014611cea57611cc7600b61348e565b7bffffffffffffffffffffffffffffffffffffffffffffffffffffffff16611cee565b600a545b905090565b611cfb610c60565b73ffffffffffffffffffffffffffffffffffffffff16611d19612635565b73ffffffffffffffffffffffffffffffffffffffff1614611d6f576040517f08c379a0000000000000000000000000000000000000000000000000000000008152600401611d6690616462565b60405180910390fd5b3073ffffffffffffffffffffffffffffffffffffffff16611d8e610c60565b73ffffffffffffffffffffffffffffffffffffffff1614611dde576000611db361263d565b604051611dc192919061639b565b604051809103902090505b80611dd7600461264a565b03611dcc57505b611de7816134f8565b50565b600080600c60009054906101000a900473ffffffffffffffffffffffffffffffffffffffff1673ffffffffffffffffffffffffffffffffffffffff1663d45c4435600d6000868152602001908152602001600020546040518263ffffffff1660e01b8152600401611e5b919061596d565b602060405180830381865afa158015611e78573d6000803e3d6000fd5b505050506040513d601f19601f82011682018060405250810190611e9c9190616589565b905060018114611eac5780611eaf565b60005b915050919050565b6000611ec1613597565b905090565b600063bc197c8160e01b905095945050505050565b60006003600083815260200190815260200160002060010160009054906101000a900467ffffffffffffffff1667ffffffffffffffff169050919050565b611f21610c60565b73ffffffffffffffffffffffffffffffffffffffff16611f3f612635565b73ffffffffffffffffffffffffffffffffffffffff1614611f95576040517f08c379a0000000000000000000000000000000000000000000000000000000008152600401611f8c90616462565b60405180910390fd5b3073ffffffffffffffffffffffffffffffffffffffff16611fb4610c60565b73ffffffffffffffffffffffffffffffffffffffff1614612004576000611fd961263d565b604051611fe792919061639b565b604051809103902090505b80611ffd600461264a565b03611ff257505b6000808573ffffffffffffffffffffffffffffffffffffffff1685858560405161202f92919061639b565b60006040518083038185875af1925050503d806000811461206c576040519150601f19603f3d011682016040523d82523d6000602084013e612071565b606091505b50915091506120998282604051806060016040528060288152602001617be8602891396135a1565b50505050505050565b6000848484846040516020016120bb9493929190616c29565b6040516020818303038152906040528051906020012060001c9050949350505050565b6000600c60009054906101000a900473ffffffffffffffffffffffffffffffffffffffff16905090565b60606040518060400160405280602081526020017f737570706f72743d627261766f2671756f72756d3d666f722c6162737461696e815250905090565b7f150214d74d59b7d1e90c73fc22ef3d991dd0a76b046543d4d80ab92d2a50328f81565b612171610c60565b73ffffffffffffffffffffffffffffffffffffffff1661218f612635565b73ffffffffffffffffffffffffffffffffffffffff16146121e5576040517f08c379a00000000000000000000000000000000000000000000000000000000081526004016121dc90616462565b60405180910390fd5b3073ffffffffffffffffffffffffffffffffffffffff16612204610c60565b73ffffffffffffffffffffffffffffffffffffffff161461225457600061222961263d565b60405161223792919061639b565b604051809103902090505b8061224d600461264a565b0361224257505b61225d816135c3565b50565b600061226c838361364b565b905092915050565b61227c610c60565b73ffffffffffffffffffffffffffffffffffffffff1661229a612635565b73ffffffffffffffffffffffffffffffffffffffff16146122f0576040517f08c379a00000000000000000000000000000000000000000000000000000000081526004016122e790616462565b60405180910390fd5b3073ffffffffffffffffffffffffffffffffffffffff1661230f610c60565b73ffffffffffffffffffffffffffffffffffffffff161461235f57600061233461263d565b60405161234292919061639b565b604051809103902090505b80612358600461264a565b0361234d57505b61236881613667565b50565b600063f23a6e6160e01b905095945050505050565b600061238b826136ac565b9050919050565b7f000000000000000000000000000000000000000000000000000000000000000081565b6000600c60009054906101000a900473ffffffffffffffffffffffffffffffffffffffff16905090565b60007f6e665ced000000000000000000000000000000000000000000000000000000007bffffffffffffffffffffffffffffffffffffffffffffffffffffffff1916827bffffffffffffffffffffffffffffffffffffffffffffffffffffffff19161480612453575061245282613774565b5b9050919050565b6000600754905090565b6000612477612471613990565b83613a47565b9050919050565b600080600061248f87878787613a88565b9150915061249c81613b6a565b8192505050949350505050565b600080600360008881526020019081526020016000209050600160078111156124d5576124d4615a03565b5b6124de88611455565b60078111156124f0576124ef615a03565b5b14612530576040517f08c379a000000000000000000000000000000000000000000000000000000000815260040161252790616cf5565b60405180910390fd5b600061255f878360000160009054906101000a900467ffffffffffffffff1667ffffffffffffffff16866133e7565b905061256e8888888488613cd0565b60008451036125d0578673ffffffffffffffffffffffffffffffffffffffff167fb8e138887d0aa13bab447e82de9d5c1777041ecd21ca36ba824ff1e6c07ddda4898884896040516125c39493929190616d15565b60405180910390a2612627565b8673ffffffffffffffffffffffffffffffffffffffff167fe2babfbac5889a709b63bb7f598b324e08bc5a4fb9ec647fb3cbc9ec07eb8712898884898960405161261e959493929190616dab565b60405180910390a25b809250505095945050505050565b600033905090565b3660008036915091509091565b600061265582613ed4565b1561268c576040517f3db2a12a00000000000000000000000000000000000000000000000000000000815260040160405180910390fd5b60008260000160009054906101000a9004600f0b905082600101600082600f0b600f0b815260200190815260200160002054915082600101600082600f0b600f0b815260200190815260200160002060009055600181018360000160006101000a8154816fffffffffffffffffffffffffffffffff0219169083600f0b6fffffffffffffffffffffffffffffffff16021790555050919050565b61272e611c8d565b811115612770576040517f08c379a000000000000000000000000000000000000000000000000000000000815260040161276790616ea4565b60405180910390fd5b600061277a611cac565b90506000811415801561279557506000600b60000180549050145b1561288757600b6000016040518060400160405280600063ffffffff1681526020016127c084613f09565b7bffffffffffffffffffffffffffffffffffffffffffffffffffffffff168152509080600181540180825580915050600190039060005260206000200160009091909190915060008201518160000160006101000a81548163ffffffff021916908363ffffffff16021790555060208201518160000160046101000a8154817bffffffffffffffffffffffffffffffffffffffffffffffffffffffff02191690837bffffffffffffffffffffffffffffffffffffffffffffffffffffffff16021790555050505b6128bc6128a2612895611be7565b65ffffffffffff16612c62565b6128ab84613f09565b600b613f749092919063ffffffff16565b50507f0553476bf02ef2726e8ce5ced78d63e26e602e4a2257b1f559418e24b463399781836040516128ef929190616956565b60405180910390a15050565b3073ffffffffffffffffffffffffffffffffffffffff1661291a610c60565b73ffffffffffffffffffffffffffffffffffffffff16146129d75760005b84518110156129d5573073ffffffffffffffffffffffffffffffffffffffff1685828151811061296b5761296a616ba1565b5b602002602001015173ffffffffffffffffffffffffffffffffffffffff16036129c4576129c38382815181106129a4576129a3616ba1565b5b6020026020010151805190602001206004613f9190919063ffffffff16565b5b806129ce90616ec4565b9050612938565b505b5050505050565b6129eb858585858561400d565b5050505050565b3073ffffffffffffffffffffffffffffffffffffffff16612a11610c60565b73ffffffffffffffffffffffffffffffffffffffff1614612a4657612a366004613ed4565b612a4557612a4460046140ab565b5b5b5050505050565b6000600654905090565b6000612a6d85858585612a6861412c565b6124a9565b9050949350505050565b600080612a8383614143565b905060046007811115612a9957612a98615a03565b5b816007811115612aac57612aab615a03565b5b14612aba5780915050612c45565b6000600d60008581526020019081526020016000205490506000801b8103612ae6578192505050612c45565b600c60009054906101000a900473ffffffffffffffffffffffffffffffffffffffff1673ffffffffffffffffffffffffffffffffffffffff16632ab0f529826040518263ffffffff1660e01b8152600401612b41919061596d565b602060405180830381865afa158015612b5e573d6000803e3d6000fd5b505050506040513d601f19601f82011682018060405250810190612b829190616f38565b15612b9257600792505050612c45565b600c60009054906101000a900473ffffffffffffffffffffffffffffffffffffffff1673ffffffffffffffffffffffffffffffffffffffff1663584b153e826040518263ffffffff1660e01b8152600401612bed919061596d565b602060405180830381865afa158015612c0a573d6000803e3d6000fd5b505050506040513d601f19601f82011682018060405250810190612c2e9190616f38565b15612c3e57600592505050612c45565b6002925050505b919050565b6000612c588585858561426f565b9050949350505050565b600063ffffffff8016821115612cad576040517f08c379a0000000000000000000000000000000000000000000000000000000008152600401612ca490616fd7565b60405180910390fd5b819050919050565b600080836000018054905090506000808290506005831115612d37576000612cdc84614361565b84612ce79190616b6d565b9050612cf6876000018261445a565b60000160009054906101000a900463ffffffff1663ffffffff168663ffffffff161015612d2557809150612d35565b600181612d329190616922565b92505b505b6000612d488760000187858561446f565b905060008114612d9c57612d6b87600001600183612d669190616b6d565b61445a565b60000160049054906101000a90047bffffffffffffffffffffffffffffffffffffffffffffffffffffffff16612d9f565b60005b94505050505092915050565b7fc565b045403dc03c2eea82b81a0465edad9e2e7fc4d97e11421c209da93d7a9360065482604051612dde929190616956565b60405180910390a18060068190555050565b600080612dfb612635565b9050612e0781846144e2565b612e46576040517f08c379a0000000000000000000000000000000000000000000000000000000008152600401612e3d90617043565b60405180910390fd5b6000612e50611be7565b65ffffffffffff169050612e62611eb7565b612e7883600184612e739190616b6d565b612260565b1015612eb9576040517f08c379a0000000000000000000000000000000000000000000000000000000008152600401612eb0906170d5565b60405180910390fd5b6000612ece88888888805190602001206120a2565b90508651885114612f14576040517f08c379a0000000000000000000000000000000000000000000000000000000008152600401612f0b90617167565b60405180910390fd5b8551885114612f58576040517f08c379a0000000000000000000000000000000000000000000000000000000008152600401612f4f90617167565b60405180910390fd5b6000885111612f9c576040517f08c379a0000000000000000000000000000000000000000000000000000000008152600401612f93906171d3565b60405180910390fd5b60006003600083815260200190815260200160002060000160009054906101000a900467ffffffffffffffff1667ffffffffffffffff1614613013576040517f08c379a000000000000000000000000000000000000000000000000000000000815260040161300a90617265565b60405180910390fd5b600061301d6113bc565b836130289190616922565b90506000613034610c81565b8261303f9190616922565b90506040518060e0016040528061305584614634565b67ffffffffffffffff1681526020018673ffffffffffffffffffffffffffffffffffffffff168152602001600060e01b7bffffffffffffffffffffffffffffffffffffffffffffffffffffffff191681526020016130b283614634565b67ffffffffffffffff168152602001600060401b67ffffffffffffffff19168152602001600015158152602001600015158152506003600085815260200190815260200160002060008201518160000160006101000a81548167ffffffffffffffff021916908367ffffffffffffffff16021790555060208201518160000160086101000a81548173ffffffffffffffffffffffffffffffffffffffff021916908373ffffffffffffffffffffffffffffffffffffffff160217905550604082015181600001601c6101000a81548163ffffffff021916908360e01c021790555060608201518160010160006101000a81548167ffffffffffffffff021916908367ffffffffffffffff16021790555060808201518160010160086101000a81548177ffffffffffffffffffffffffffffffffffffffffffffffff021916908360401c021790555060a08201518160020160006101000a81548160ff02191690831515021790555060c08201518160020160016101000a81548160ff0219169083151502179055509050507f7d84a6263ae0d98d3329bd7b46bb4e8d6f98cd35a7adb45c274c8b7fd5ebd5e083868c8c8e5167ffffffffffffffff81111561327d5761327c61520b565b5b6040519080825280602002602001820160405280156132b057816020015b606081526020019060019003908161329b5790505b508d88888f6040516132ca99989796959493929190617391565b60405180910390a18295505050505050949350505050565b606060ff60001b83146132ff576132f88361468b565b905061338c565b81805461330b906164b1565b80601f0160208091040260200160405190810160405280929190818152602001828054613337906164b1565b80156133845780601f1061335957610100808354040283529160200191613384565b820191906000526020600020905b81548152906001019060200180831161336757829003601f168201915b505050505090505b92915050565b600065ffffffffffff80168211156133df576040517f08c379a00000000000000000000000000000000000000000000000000000000081526004016133d6906174b3565b60405180910390fd5b819050919050565b60007f000000000000000000000000000000000000000000000000000000000000000073ffffffffffffffffffffffffffffffffffffffff16633a46b1a885856040518363ffffffff1660e01b81526004016134449291906174d3565b602060405180830381865afa158015613461573d6000803e3d6000fd5b505050506040513d601f19601f820116820180604052508101906134859190616589565b90509392505050565b60008082600001805490509050600081146134ed576134bc836000016001836134b79190616b6d565b61445a565b60000160049054906101000a90047bffffffffffffffffffffffffffffffffffffffffffffffffffffffff166134f0565b60005b915050919050565b7f08f74ea46ef7894f65eabfb5e6e695de773a000b47c529ab559178069b226401600c60009054906101000a900473ffffffffffffffffffffffffffffffffffffffff168260405161354b9291906174fc565b60405180910390a180600c60006101000a81548173ffffffffffffffffffffffffffffffffffffffff021916908373ffffffffffffffffffffffffffffffffffffffff16021790555050565b6000600854905090565b606083156135b1578290506135bc565b6135bb83836146ff565b5b9392505050565b60008111613606576040517f08c379a00000000000000000000000000000000000000000000000000000000081526004016135fd90617597565b60405180910390fd5b7f7e3f7f0708a84de9203036abaa450dccc85ad5ff52f78c170f3edb55cf5e882860075482604051613639929190616956565b60405180910390a18060078190555050565b600061365f838361365a61412c565b6133e7565b905092915050565b7fccb45da8d5717e6c4544694297c4ba5cf151d455c9bb0ed4fc7a38411bc054616008548260405161369a929190616956565b60405180910390a18060088190555050565b60006136b6611c8d565b6136bf836117fc565b7f000000000000000000000000000000000000000000000000000000000000000073ffffffffffffffffffffffffffffffffffffffff16638e539e8c856040518263ffffffff1660e01b81526004016137189190615110565b602060405180830381865afa158015613735573d6000803e3d6000fd5b505050506040513d601f19601f820116820180604052508101906137599190616589565b61376391906175b7565b61376d9190617628565b9050919050565b60008063143489d060e01b63452115d660e01b1890506000639a802a6d60e01b630342018160e01b635f398a1460e01b18189050600081837fda287a1d000000000000000000000000000000000000000000000000000000007ff2e09f740000000000000000000000000000000000000000000000000000000018181890506000837fda287a1d000000000000000000000000000000000000000000000000000000007ff2e09f740000000000000000000000000000000000000000000000000000000018189050817bffffffffffffffffffffffffffffffffffffffffffffffffffffffff1916867bffffffffffffffffffffffffffffffffffffffffffffffffffffffff191614806138c55750807bffffffffffffffffffffffffffffffffffffffffffffffffffffffff1916867bffffffffffffffffffffffffffffffffffffffffffffffffffffffff1916145b8061390d5750837bffffffffffffffffffffffffffffffffffffffffffffffffffffffff1916867bffffffffffffffffffffffffffffffffffffffffffffffffffffffff1916145b8061397557507f4e2312e0000000000000000000000000000000000000000000000000000000007bffffffffffffffffffffffffffffffffffffffffffffffffffffffff1916867bffffffffffffffffffffffffffffffffffffffffffffffffffffffff1916145b8061398557506139848661474f565b5b945050505050919050565b60007f000000000000000000000000000000000000000000000000000000000000000073ffffffffffffffffffffffffffffffffffffffff163073ffffffffffffffffffffffffffffffffffffffff16148015613a0c57507f000000000000000000000000000000000000000000000000000000000000000046145b15613a39577f00000000000000000000000000000000000000000000000000000000000000009050613a44565b613a416147b9565b90505b90565b60006040517f190100000000000000000000000000000000000000000000000000000000000081528360028201528260228201526042812091505092915050565b6000807f7fffffffffffffffffffffffffffffff5d576e7357a4501ddfe92f46681b20a08360001c1115613ac3576000600391509150613b61565b600060018787878760405160008152602001604052604051613ae89493929190617659565b6020604051602081039080840390855afa158015613b0a573d6000803e3d6000fd5b505050602060405103519050600073ffffffffffffffffffffffffffffffffffffffff168173ffffffffffffffffffffffffffffffffffffffff1603613b5857600060019250925050613b61565b80600092509250505b94509492505050565b60006004811115613b7e57613b7d615a03565b5b816004811115613b9157613b90615a03565b5b0315613ccd5760016004811115613bab57613baa615a03565b5b816004811115613bbe57613bbd615a03565b5b03613bfe576040517f08c379a0000000000000000000000000000000000000000000000000000000008152600401613bf5906176ea565b60405180910390fd5b60026004811115613c1257613c11615a03565b5b816004811115613c2557613c24615a03565b5b03613c65576040517f08c379a0000000000000000000000000000000000000000000000000000000008152600401613c5c90617756565b60405180910390fd5b60036004811115613c7957613c78615a03565b5b816004811115613c8c57613c8b615a03565b5b03613ccc576040517f08c379a0000000000000000000000000000000000000000000000000000000008152600401613cc3906177e8565b60405180910390fd5b5b50565b60006009600087815260200190815260200160002090508060030160008673ffffffffffffffffffffffffffffffffffffffff1673ffffffffffffffffffffffffffffffffffffffff16815260200190815260200160002060009054906101000a900460ff1615613d76576040517f08c379a0000000000000000000000000000000000000000000000000000000008152600401613d6d9061787a565b60405180910390fd5b60018160030160008773ffffffffffffffffffffffffffffffffffffffff1673ffffffffffffffffffffffffffffffffffffffff16815260200190815260200160002060006101000a81548160ff02191690831515021790555060006002811115613de457613de3615a03565b5b60ff168460ff1603613e105782816000016000828254613e049190616922565b92505081905550613ecc565b60016002811115613e2457613e23615a03565b5b60ff168460ff1603613e505782816001016000828254613e449190616922565b92505081905550613ecb565b600280811115613e6357613e62615a03565b5b60ff168460ff1603613e8f5782816002016000828254613e839190616922565b92505081905550613eca565b6040517f08c379a0000000000000000000000000000000000000000000000000000000008152600401613ec19061790c565b60405180910390fd5b5b5b505050505050565b60008160000160009054906101000a9004600f0b600f0b8260000160109054906101000a9004600f0b600f0b13159050919050565b60007bffffffffffffffffffffffffffffffffffffffffffffffffffffffff8016821115613f6c576040517f08c379a0000000000000000000000000000000000000000000000000000000008152600401613f639061799e565b60405180910390fd5b819050919050565b600080613f8585600001858561484f565b91509150935093915050565b60008260000160109054906101000a9004600f0b90508183600101600083600f0b600f0b815260200190815260200160002081905550600181018360000160106101000a8154816fffffffffffffffffffffffffffffffff0219169083600f0b6fffffffffffffffffffffffffffffffff160217905550505050565b600c60009054906101000a900473ffffffffffffffffffffffffffffffffffffffff1673ffffffffffffffffffffffffffffffffffffffff1663e38335e5348686866000876040518763ffffffff1660e01b81526004016140729594939291906167d3565b6000604051808303818588803b15801561408b57600080fd5b505af115801561409f573d6000803e3d6000fd5b50505050505050505050565b60008160000160006101000a8154816fffffffffffffffffffffffffffffffff0219169083600f0b6fffffffffffffffffffffffffffffffff16021790555060008160000160106101000a8154816fffffffffffffffffffffffffffffffff0219169083600f0b6fffffffffffffffffffffffffffffffff16021790555050565b606060405180602001604052806000815250905090565b6000806003600084815260200190815260200160002090508060020160009054906101000a900460ff161561417c57600791505061426a565b8060020160019054906101000a900460ff161561419d57600291505061426a565b60006141a88461135a565b9050600081036141ed576040517f08c379a00000000000000000000000000000000000000000000000000000000081526004016141e490617a0a565b60405180910390fd5b60006141f7611be7565b65ffffffffffff169050808210614214576000935050505061426a565b600061421f86611edb565b905081811061423557600194505050505061426a565b61423e86614bd5565b801561424f575061424e86614c1c565b5b1561426157600494505050505061426a565b60039450505050505b919050565b60008061427e86868686614c47565b90506000801b600d6000838152602001908152602001600020541461435557600c60009054906101000a900473ffffffffffffffffffffffffffffffffffffffff1673ffffffffffffffffffffffffffffffffffffffff1663c4d252f5600d6000848152602001908152602001600020546040518263ffffffff1660e01b815260040161430b919061596d565b600060405180830381600087803b15801561432557600080fd5b505af1158015614339573d6000803e3d6000fd5b50505050600d6000828152602001908152602001600020600090555b80915050949350505050565b60008082036143735760009050614455565b6000600161438084614da1565b901c6001901b9050600181848161439a576143996175f9565b5b048201901c905060018184816143b3576143b26175f9565b5b048201901c905060018184816143cc576143cb6175f9565b5b048201901c905060018184816143e5576143e46175f9565b5b048201901c905060018184816143fe576143fd6175f9565b5b048201901c90506001818481614417576144166175f9565b5b048201901c905060018184816144305761442f6175f9565b5b048201901c90506144518182858161444b5761444a6175f9565b5b04614e82565b9150505b919050565b60008260005281602060002001905092915050565b60005b818310156144d75760006144868484614e9b565b90508463ffffffff16614499878361445a565b60000160009054906101000a900463ffffffff1663ffffffff1611156144c1578092506144d1565b6001816144ce9190616922565b93505b50614472565b819050949350505050565b6000808251905060348110156144fc57600191505061462e565b60006014820384015190507f2370726f706f7365723d3078000000000000000000000000000000000000000073ffffffffffffffffffffffffffffffffffffffff19168173ffffffffffffffffffffffffffffffffffffffff1916146145675760019250505061462e565b6000806028846145779190616b6d565b90505b838110156145f8576000806145ab88848151811061459b5761459a616ba1565b5b602001015160f81c60f81b614ec1565b91509150816145c3576001965050505050505061462e565b8060ff1660048573ffffffffffffffffffffffffffffffffffffffff16901b1793505050806145f190616ec4565b905061457a565b508573ffffffffffffffffffffffffffffffffffffffff168173ffffffffffffffffffffffffffffffffffffffff161493505050505b92915050565b600067ffffffffffffffff8016821115614683576040517f08c379a000000000000000000000000000000000000000000000000000000000815260040161467a90617a9c565b60405180910390fd5b819050919050565b6060600061469883614f5b565b90506000602067ffffffffffffffff8111156146b7576146b661520b565b5b6040519080825280601f01601f1916602001820160405280156146e95781602001600182028036833780820191505090505b5090508181528360208201528092505050919050565b6000825111156147125781518083602001fd5b806040517f08c379a000000000000000000000000000000000000000000000000000000000815260040161474691906154e5565b60405180910390fd5b60007f01ffc9a7000000000000000000000000000000000000000000000000000000007bffffffffffffffffffffffffffffffffffffffffffffffffffffffff1916827bffffffffffffffffffffffffffffffffffffffffffffffffffffffff1916149050919050565b60007f8b73c3c69bb8fe3d512ecc4cf759cc79239f7b179b0ffacaa9a75d522b39400f7f00000000000000000000000000000000000000000000000000000000000000007f00000000000000000000000000000000000000000000000000000000000000004630604051602001614834959493929190617abc565b60405160208183030381529060405280519060200120905090565b6000806000858054905090506000811115614ae557600061487c876001846148779190616b6d565b61445a565b6040518060400160405290816000820160009054906101000a900463ffffffff1663ffffffff1663ffffffff1681526020016000820160049054906101000a90047bffffffffffffffffffffffffffffffffffffffffffffffffffffffff167bffffffffffffffffffffffffffffffffffffffffffffffffffffffff167bffffffffffffffffffffffffffffffffffffffffffffffffffffffff168152505090508563ffffffff16816000015163ffffffff161115614970576040517f08c379a000000000000000000000000000000000000000000000000000000000815260040161496790617b5b565b60405180910390fd5b8563ffffffff16816000015163ffffffff16036149f4578461499e886001856149999190616b6d565b61445a565b60000160046101000a8154817bffffffffffffffffffffffffffffffffffffffffffffffffffffffff02191690837bffffffffffffffffffffffffffffffffffffffffffffffffffffffff160217905550614ad4565b8660405180604001604052808863ffffffff168152602001877bffffffffffffffffffffffffffffffffffffffffffffffffffffffff168152509080600181540180825580915050600190039060005260206000200160009091909190915060008201518160000160006101000a81548163ffffffff021916908363ffffffff16021790555060208201518160000160046101000a8154817bffffffffffffffffffffffffffffffffffffffffffffffffffffffff02191690837bffffffffffffffffffffffffffffffffffffffffffffffffffffffff16021790555050505b806020015185935093505050614bcd565b8560405180604001604052808763ffffffff168152602001867bffffffffffffffffffffffffffffffffffffffffffffffffffffffff168152509080600181540180825580915050600190039060005260206000200160009091909190915060008201518160000160006101000a81548163ffffffff021916908363ffffffff16021790555060208201518160000160046101000a8154817bffffffffffffffffffffffffffffffffffffffffffffffffffffffff02191690837bffffffffffffffffffffffffffffffffffffffffffffffffffffffff160217905550505060008492509250505b935093915050565b60008060096000848152602001908152602001600020905080600201548160010154614c019190616922565b614c12614c0d8561135a565b612380565b1115915050919050565b6000806009600084815260200190815260200160002090508060000154816001015411915050919050565b600080614c56868686866120a2565b90506000614c6382611455565b905060026007811115614c7957614c78615a03565b5b816007811115614c8c57614c8b615a03565b5b14158015614cbf575060066007811115614ca957614ca8615a03565b5b816007811115614cbc57614cbb615a03565b5b14155b8015614cef5750600780811115614cd957614cd8615a03565b5b816007811115614cec57614ceb615a03565b5b14155b614d2e576040517f08c379a0000000000000000000000000000000000000000000000000000000008152600401614d2590617bc7565b60405180910390fd5b60016003600084815260200190815260200160002060020160016101000a81548160ff0219169083151502179055507f789cf55be980739dad1d0699b93b58e806b51c9d96619bfa8fe0a28abaa7b30c82604051614d8c9190615110565b60405180910390a18192505050949350505050565b600080600090506000608084901c1115614dc357608083901c92506080810190505b6000604084901c1115614dde57604083901c92506040810190505b6000602084901c1115614df957602083901c92506020810190505b6000601084901c1115614e1457601083901c92506010810190505b6000600884901c1115614e2f57600883901c92506008810190505b6000600484901c1115614e4a57600483901c92506004810190505b6000600284901c1115614e6557600283901c92506002810190505b6000600184901c1115614e79576001810190505b80915050919050565b6000818310614e915781614e93565b825b905092915050565b60006002828418614eac9190617628565b828416614eb99190616922565b905092915050565b60008060008360f81c90508060ff16602f108015614ee25750603a8160ff16105b15614ef7576001603082039250925050614f56565b8060ff166040108015614f0d575060478160ff16105b15614f22576001603782039250925050614f56565b8060ff166060108015614f38575060678160ff16105b15614f4d576001605782039250925050614f56565b60008092509250505b915091565b60008060ff8360001c169050601f811115614fa2576040517fb3512b0c00000000000000000000000000000000000000000000000000000000815260040160405180910390fd5b80915050919050565b600082825260208201905092915050565b7f476f7665726e6f723a206d7573742073656e6420746f206578656375746f7200600082015250565b6000614ff2601f83614fab565b9150614ffd82614fbc565b602082019050919050565b6000602082019050818103600083015261502181614fe5565b9050919050565b6000604051905090565b600080fd5b600080fd5b60007fffffffff0000000000000000000000000000000000000000000000000000000082169050919050565b6150718161503c565b811461507c57600080fd5b50565b60008135905061508e81615068565b92915050565b6000602082840312156150aa576150a9615032565b5b60006150b88482850161507f565b91505092915050565b60008115159050919050565b6150d6816150c1565b82525050565b60006020820190506150f160008301846150cd565b92915050565b6000819050919050565b61510a816150f7565b82525050565b60006020820190506151256000830184615101565b92915050565b615134816150f7565b811461513f57600080fd5b50565b6000813590506151518161512b565b92915050565b600060ff82169050919050565b61516d81615157565b811461517857600080fd5b50565b60008135905061518a81615164565b92915050565b600080fd5b600080fd5b600080fd5b60008083601f8401126151b5576151b4615190565b5b8235905067ffffffffffffffff8111156151d2576151d1615195565b5b6020830191508360018202830111156151ee576151ed61519a565b5b9250929050565b600080fd5b6000601f19601f8301169050919050565b7f4e487b7100000000000000000000000000000000000000000000000000000000600052604160045260246000fd5b615243826151fa565b810181811067ffffffffffffffff821117156152625761526161520b565b5b80604052505050565b6000615275615028565b9050615281828261523a565b919050565b600067ffffffffffffffff8211156152a1576152a061520b565b5b6152aa826151fa565b9050602081019050919050565b82818337600083830152505050565b60006152d96152d484615286565b61526b565b9050828152602081018484840111156152f5576152f46151f5565b5b6153008482856152b7565b509392505050565b600082601f83011261531d5761531c615190565b5b813561532d8482602086016152c6565b91505092915050565b6000819050919050565b61534981615336565b811461535457600080fd5b50565b60008135905061536681615340565b92915050565b60008060008060008060008060e0898b03121561538c5761538b615032565b5b600061539a8b828c01615142565b98505060206153ab8b828c0161517b565b975050604089013567ffffffffffffffff8111156153cc576153cb615037565b5b6153d88b828c0161519f565b9650965050606089013567ffffffffffffffff8111156153fb576153fa615037565b5b6154078b828c01615308565b94505060806154188b828c0161517b565b93505060a06154298b828c01615357565b92505060c061543a8b828c01615357565b9150509295985092959890939650565b6000602082840312156154605761545f615032565b5b600061546e84828501615142565b91505092915050565b600081519050919050565b60005b838110156154a0578082015181840152602081019050615485565b60008484015250505050565b60006154b782615477565b6154c18185614fab565b93506154d1818560208601615482565b6154da816151fa565b840191505092915050565b600060208201905081810360008301526154ff81846154ac565b905092915050565b600073ffffffffffffffffffffffffffffffffffffffff82169050919050565b600061553282615507565b9050919050565b61554281615527565b82525050565b600060208201905061555d6000830184615539565b92915050565b61556c81615527565b811461557757600080fd5b50565b60008135905061558981615563565b92915050565b600080600080608085870312156155a9576155a8615032565b5b60006155b78782880161557a565b94505060206155c88782880161557a565b93505060406155d987828801615142565b925050606085013567ffffffffffffffff8111156155fa576155f9615037565b5b61560687828801615308565b91505092959194509250565b61561b8161503c565b82525050565b60006020820190506156366000830184615612565b92915050565b600067ffffffffffffffff8211156156575761565661520b565b5b602082029050602081019050919050565b600061567b6156768461563c565b61526b565b9050808382526020820190506020840283018581111561569e5761569d61519a565b5b835b818110156156c757806156b3888261557a565b8452602084019350506020810190506156a0565b5050509392505050565b600082601f8301126156e6576156e5615190565b5b81356156f6848260208601615668565b91505092915050565b600067ffffffffffffffff82111561571a5761571961520b565b5b602082029050602081019050919050565b600061573e615739846156ff565b61526b565b905080838252602082019050602084028301858111156157615761576061519a565b5b835b8181101561578a57806157768882615142565b845260208401935050602081019050615763565b5050509392505050565b600082601f8301126157a9576157a8615190565b5b81356157b984826020860161572b565b91505092915050565b600067ffffffffffffffff8211156157dd576157dc61520b565b5b602082029050602081019050919050565b60006158016157fc846157c2565b61526b565b905080838252602082019050602084028301858111156158245761582361519a565b5b835b8181101561586b57803567ffffffffffffffff81111561584957615848615190565b5b8086016158568982615308565b85526020850194505050602081019050615826565b5050509392505050565b600082601f83011261588a57615889615190565b5b813561589a8482602086016157ee565b91505092915050565b600080600080608085870312156158bd576158bc615032565b5b600085013567ffffffffffffffff8111156158db576158da615037565b5b6158e7878288016156d1565b945050602085013567ffffffffffffffff81111561590857615907615037565b5b61591487828801615794565b935050604085013567ffffffffffffffff81111561593557615934615037565b5b61594187828801615875565b925050606061595287828801615357565b91505092959194509250565b61596781615336565b82525050565b6000602082019050615982600083018461595e565b92915050565b600080600080600060a086880312156159a4576159a3615032565b5b60006159b288828901615142565b95505060206159c38882890161517b565b94505060406159d48882890161517b565b93505060606159e588828901615357565b92505060806159f688828901615357565b9150509295509295909350565b7f4e487b7100000000000000000000000000000000000000000000000000000000600052602160045260246000fd5b60088110615a4357615a42615a03565b5b50565b6000819050615a5482615a32565b919050565b6000615a6482615a46565b9050919050565b615a7481615a59565b82525050565b6000602082019050615a8f6000830184615a6b565b92915050565b60008060408385031215615aac57615aab615032565b5b6000615aba85828601615142565b9250506020615acb8582860161557a565b9150509250929050565b6000606082019050615aea6000830186615101565b615af76020830185615101565b615b046040830184615101565b949350505050565b60008060408385031215615b2357615b22615032565b5b6000615b3185828601615142565b9250506020615b428582860161517b565b9150509250929050565b600080600080600060808688031215615b6857615b67615032565b5b6000615b7688828901615142565b9550506020615b878882890161517b565b945050604086013567ffffffffffffffff811115615ba857615ba7615037565b5b615bb48882890161519f565b9350935050606086013567ffffffffffffffff811115615bd757615bd6615037565b5b615be388828901615308565b9150509295509295909350565b60008060008060608587031215615c0a57615c09615032565b5b6000615c1887828801615142565b9450506020615c298782880161517b565b935050604085013567ffffffffffffffff811115615c4a57615c49615037565b5b615c568782880161519f565b925092505092959194509250565b600067ffffffffffffffff821115615c7f57615c7e61520b565b5b615c88826151fa565b9050602081019050919050565b6000615ca8615ca384615c64565b61526b565b905082815260208101848484011115615cc457615cc36151f5565b5b615ccf8482856152b7565b509392505050565b600082601f830112615cec57615ceb615190565b5b8135615cfc848260208601615c95565b91505092915050565b60008060008060808587031215615d1f57615d1e615032565b5b600085013567ffffffffffffffff811115615d3d57615d3c615037565b5b615d49878288016156d1565b945050602085013567ffffffffffffffff811115615d6a57615d69615037565b5b615d7687828801615794565b935050604085013567ffffffffffffffff811115615d9757615d96615037565b5b615da387828801615875565b925050606085013567ffffffffffffffff811115615dc457615dc3615037565b5b615dd087828801615cd7565b91505092959194509250565b60007fff0000000000000000000000000000000000000000000000000000000000000082169050919050565b615e1181615ddc565b82525050565b600081519050919050565b600082825260208201905092915050565b6000819050602082019050919050565b615e4c816150f7565b82525050565b6000615e5e8383615e43565b60208301905092915050565b6000602082019050919050565b6000615e8282615e17565b615e8c8185615e22565b9350615e9783615e33565b8060005b83811015615ec8578151615eaf8882615e52565b9750615eba83615e6a565b925050600181019050615e9b565b5085935050505092915050565b600060e082019050615eea600083018a615e08565b8181036020830152615efc81896154ac565b90508181036040830152615f1081886154ac565b9050615f1f6060830187615101565b615f2c6080830186615539565b615f3960a083018561595e565b81810360c0830152615f4b8184615e77565b905098975050505050505050565b600065ffffffffffff82169050919050565b615f7481615f59565b82525050565b6000602082019050615f8f6000830184615f6b565b92915050565b600080600060608486031215615fae57615fad615032565b5b6000615fbc8682870161557a565b9350506020615fcd86828701615142565b925050604084013567ffffffffffffffff811115615fee57615fed615037565b5b615ffa86828701615308565b9150509250925092565b600061600f82615507565b9050919050565b600061602182616004565b9050919050565b61603181616016565b811461603c57600080fd5b50565b60008135905061604e81616028565b92915050565b60006020828403121561606a57616069615032565b5b60006160788482850161603f565b91505092915050565b600080600080600060a0868803121561609d5761609c615032565b5b60006160ab8882890161557a565b95505060206160bc8882890161557a565b945050604086013567ffffffffffffffff8111156160dd576160dc615037565b5b6160e988828901615794565b935050606086013567ffffffffffffffff81111561610a57616109615037565b5b61611688828901615794565b925050608086013567ffffffffffffffff81111561613757616136615037565b5b61614388828901615308565b9150509295509295909350565b60008083601f84011261616657616165615190565b5b8235905067ffffffffffffffff81111561618357616182615195565b5b60208301915083600182028301111561619f5761619e61519a565b5b9250929050565b600080600080606085870312156161c0576161bf615032565b5b60006161ce8782880161557a565b94505060206161df87828801615142565b935050604085013567ffffffffffffffff811115616200576161ff615037565b5b61620c87828801616150565b925092505092959194509250565b6000806040838503121561623157616230615032565b5b600061623f8582860161557a565b925050602061625085828601615142565b9150509250929050565b600080600080600060a0868803121561627657616275615032565b5b60006162848882890161557a565b95505060206162958882890161557a565b94505060406162a688828901615142565b93505060606162b788828901615142565b925050608086013567ffffffffffffffff8111156162d8576162d7615037565b5b6162e488828901615308565b9150509295509295909350565b6000819050919050565b600061631661631161630c84615507565b6162f1565b615507565b9050919050565b6000616328826162fb565b9050919050565b600061633a8261631d565b9050919050565b61634a8161632f565b82525050565b60006020820190506163656000830184616341565b92915050565b600081905092915050565b6000616382838561636b565b935061638f8385846152b7565b82840190509392505050565b60006163a8828486616376565b91508190509392505050565b6163bd81615157565b82525050565b600060a0820190506163d8600083018861595e565b6163e56020830187615101565b6163f260408301866163b4565b6163ff606083018561595e565b61640c608083018461595e565b9695505050505050565b7f476f7665726e6f723a206f6e6c79476f7665726e616e63650000000000000000600082015250565b600061644c601883614fab565b915061645782616416565b602082019050919050565b6000602082019050818103600083015261647b8161643f565b9050919050565b7f4e487b7100000000000000000000000000000000000000000000000000000000600052602260045260246000fd5b600060028204905060018216806164c957607f821691505b6020821081036164dc576164db616482565b5b50919050565b7f476f7665726e6f723a2070726f706f73616c206e6f742073756363657373667560008201527f6c00000000000000000000000000000000000000000000000000000000000000602082015250565b600061653e602183614fab565b9150616549826164e2565b604082019050919050565b6000602082019050818103600083015261656d81616531565b9050919050565b6000815190506165838161512b565b92915050565b60006020828403121561659f5761659e615032565b5b60006165ad84828501616574565b91505092915050565b600081519050919050565b600082825260208201905092915050565b6000819050602082019050919050565b6165eb81615527565b82525050565b60006165fd83836165e2565b60208301905092915050565b6000602082019050919050565b6000616621826165b6565b61662b81856165c1565b9350616636836165d2565b8060005b8381101561666757815161664e88826165f1565b975061665983616609565b92505060018101905061663a565b5085935050505092915050565b600081519050919050565b600082825260208201905092915050565b6000819050602082019050919050565b600081519050919050565b600082825260208201905092915050565b60006166c7826166a0565b6166d181856166ab565b93506166e1818560208601615482565b6166ea816151fa565b840191505092915050565b600061670183836166bc565b905092915050565b6000602082019050919050565b600061672182616674565b61672b818561667f565b93508360208202850161673d85616690565b8060005b85811015616779578484038952815161675a85826166f5565b945061676583616709565b925060208a01995050600181019050616741565b50829750879550505050505092915050565b6000819050919050565b60008160001b9050919050565b60006167bd6167b86167b38461678b565b616795565b615336565b9050919050565b6167cd816167a2565b82525050565b600060a08201905081810360008301526167ed8188616616565b905081810360208301526168018187615e77565b905081810360408301526168158186616716565b905061682460608301856167c4565b616831608083018461595e565b9695505050505050565b60008151905061684a81615340565b92915050565b60006020828403121561686657616865615032565b5b60006168748482850161683b565b91505092915050565b600060c08201905081810360008301526168978189616616565b905081810360208301526168ab8188615e77565b905081810360408301526168bf8187616716565b90506168ce60608301866167c4565b6168db608083018561595e565b6168e860a0830184615101565b979650505050505050565b7f4e487b7100000000000000000000000000000000000000000000000000000000600052601160045260246000fd5b600061692d826150f7565b9150616938836150f7565b92508282019050808211156169505761694f6168f3565b5b92915050565b600060408201905061696b6000830185615101565b6169786020830184615101565b9392505050565b6000606082019050616994600083018661595e565b6169a16020830185615101565b6169ae60408301846163b4565b949350505050565b7f476f7665726e6f723a20746f6f206c61746520746f2063616e63656c00000000600082015250565b60006169ec601c83614fab565b91506169f7826169b6565b602082019050919050565b60006020820190508181036000830152616a1b816169df565b9050919050565b7f476f7665726e6f723a206f6e6c792070726f706f7365722063616e2063616e6360008201527f656c000000000000000000000000000000000000000000000000000000000000602082015250565b6000616a7e602283614fab565b9150616a8982616a22565b604082019050919050565b60006020820190508181036000830152616aad81616a71565b9050919050565b6000616ac7616ac284615c64565b61526b565b905082815260208101848484011115616ae357616ae26151f5565b5b616aee848285615482565b509392505050565b600082601f830112616b0b57616b0a615190565b5b8151616b1b848260208601616ab4565b91505092915050565b600060208284031215616b3a57616b39615032565b5b600082015167ffffffffffffffff811115616b5857616b57615037565b5b616b6484828501616af6565b91505092915050565b6000616b78826150f7565b9150616b83836150f7565b9250828203905081811115616b9b57616b9a6168f3565b5b92915050565b7f4e487b7100000000000000000000000000000000000000000000000000000000600052603260045260246000fd5b616bd981615f59565b8114616be457600080fd5b50565b600081519050616bf681616bd0565b92915050565b600060208284031215616c1257616c11615032565b5b6000616c2084828501616be7565b91505092915050565b60006080820190508181036000830152616c438187616616565b90508181036020830152616c578186615e77565b90508181036040830152616c6b8185616716565b9050616c7a606083018461595e565b95945050505050565b7f476f7665726e6f723a20766f7465206e6f742063757272656e746c792061637460008201527f6976650000000000000000000000000000000000000000000000000000000000602082015250565b6000616cdf602383614fab565b9150616cea82616c83565b604082019050919050565b60006020820190508181036000830152616d0e81616cd2565b9050919050565b6000608082019050616d2a6000830187615101565b616d3760208301866163b4565b616d446040830185615101565b8181036060830152616d5681846154ac565b905095945050505050565b600082825260208201905092915050565b6000616d7d826166a0565b616d878185616d61565b9350616d97818560208601615482565b616da0816151fa565b840191505092915050565b600060a082019050616dc06000830188615101565b616dcd60208301876163b4565b616dda6040830186615101565b8181036060830152616dec81856154ac565b90508181036080830152616e008184616d72565b90509695505050505050565b7f476f7665726e6f72566f74657351756f72756d4672616374696f6e3a2071756f60008201527f72756d4e756d657261746f72206f7665722071756f72756d44656e6f6d696e6160208201527f746f720000000000000000000000000000000000000000000000000000000000604082015250565b6000616e8e604383614fab565b9150616e9982616e0c565b606082019050919050565b60006020820190508181036000830152616ebd81616e81565b9050919050565b6000616ecf826150f7565b91507fffffffffffffffffffffffffffffffffffffffffffffffffffffffffffffffff8203616f0157616f006168f3565b5b600182019050919050565b616f15816150c1565b8114616f2057600080fd5b50565b600081519050616f3281616f0c565b92915050565b600060208284031215616f4e57616f4d615032565b5b6000616f5c84828501616f23565b91505092915050565b7f53616665436173743a2076616c756520646f65736e27742066697420696e203360008201527f3220626974730000000000000000000000000000000000000000000000000000602082015250565b6000616fc1602683614fab565b9150616fcc82616f65565b604082019050919050565b60006020820190508181036000830152616ff081616fb4565b9050919050565b7f476f7665726e6f723a2070726f706f7365722072657374726963746564000000600082015250565b600061702d601d83614fab565b915061703882616ff7565b602082019050919050565b6000602082019050818103600083015261705c81617020565b9050919050565b7f476f7665726e6f723a2070726f706f73657220766f7465732062656c6f77207060008201527f726f706f73616c207468726573686f6c64000000000000000000000000000000602082015250565b60006170bf603183614fab565b91506170ca82617063565b604082019050919050565b600060208201905081810360008301526170ee816170b2565b9050919050565b7f476f7665726e6f723a20696e76616c69642070726f706f73616c206c656e677460008201527f6800000000000000000000000000000000000000000000000000000000000000602082015250565b6000617151602183614fab565b915061715c826170f5565b604082019050919050565b6000602082019050818103600083015261718081617144565b9050919050565b7f476f7665726e6f723a20656d7074792070726f706f73616c0000000000000000600082015250565b60006171bd601883614fab565b91506171c882617187565b602082019050919050565b600060208201905081810360008301526171ec816171b0565b9050919050565b7f476f7665726e6f723a2070726f706f73616c20616c726561647920657869737460008201527f7300000000000000000000000000000000000000000000000000000000000000602082015250565b600061724f602183614fab565b915061725a826171f3565b604082019050919050565b6000602082019050818103600083015261727e81617242565b9050919050565b600081519050919050565b600082825260208201905092915050565b6000819050602082019050919050565b600082825260208201905092915050565b60006172cd82615477565b6172d781856172b1565b93506172e7818560208601615482565b6172f0816151fa565b840191505092915050565b600061730783836172c2565b905092915050565b6000602082019050919050565b600061732782617285565b6173318185617290565b935083602082028501617343856172a1565b8060005b8581101561737f578484038952815161736085826172fb565b945061736b8361730f565b925060208a01995050600181019050617347565b50829750879550505050505092915050565b6000610120820190506173a7600083018c615101565b6173b4602083018b615539565b81810360408301526173c6818a616616565b905081810360608301526173da8189615e77565b905081810360808301526173ee818861731c565b905081810360a08301526174028187616716565b905061741160c0830186615101565b61741e60e0830185615101565b81810361010083015261743181846154ac565b90509a9950505050505050505050565b7f53616665436173743a2076616c756520646f65736e27742066697420696e203460008201527f3820626974730000000000000000000000000000000000000000000000000000602082015250565b600061749d602683614fab565b91506174a882617441565b604082019050919050565b600060208201905081810360008301526174cc81617490565b9050919050565b60006040820190506174e86000830185615539565b6174f56020830184615101565b9392505050565b60006040820190506175116000830185615539565b61751e6020830184615539565b9392505050565b7f476f7665726e6f7253657474696e67733a20766f74696e6720706572696f642060008201527f746f6f206c6f7700000000000000000000000000000000000000000000000000602082015250565b6000617581602783614fab565b915061758c82617525565b604082019050919050565b600060208201905081810360008301526175b081617574565b9050919050565b60006175c2826150f7565b91506175cd836150f7565b92508282026175db816150f7565b915082820484148315176175f2576175f16168f3565b5b5092915050565b7f4e487b7100000000000000000000000000000000000000000000000000000000600052601260045260246000fd5b6000617633826150f7565b915061763e836150f7565b92508261764e5761764d6175f9565b5b828204905092915050565b600060808201905061766e600083018761595e565b61767b60208301866163b4565b617688604083018561595e565b617695606083018461595e565b95945050505050565b7f45434453413a20696e76616c6964207369676e61747572650000000000000000600082015250565b60006176d4601883614fab565b91506176df8261769e565b602082019050919050565b60006020820190508181036000830152617703816176c7565b9050919050565b7f45434453413a20696e76616c6964207369676e6174757265206c656e67746800600082015250565b6000617740601f83614fab565b915061774b8261770a565b602082019050919050565b6000602082019050818103600083015261776f81617733565b9050919050565b7f45434453413a20696e76616c6964207369676e6174757265202773272076616c60008201527f7565000000000000000000000000000000000000000000000000000000000000602082015250565b60006177d2602283614fab565b91506177dd82617776565b604082019050919050565b60006020820190508181036000830152617801816177c5565b9050919050565b7f476f7665726e6f72566f74696e6753696d706c653a20766f746520616c72656160008201527f6479206361737400000000000000000000000000000000000000000000000000602082015250565b6000617864602783614fab565b915061786f82617808565b604082019050919050565b6000602082019050818103600083015261789381617857565b9050919050565b7f476f7665726e6f72566f74696e6753696d706c653a20696e76616c696420766160008201527f6c756520666f7220656e756d20566f7465547970650000000000000000000000602082015250565b60006178f6603583614fab565b91506179018261789a565b604082019050919050565b60006020820190508181036000830152617925816178e9565b9050919050565b7f53616665436173743a2076616c756520646f65736e27742066697420696e203260008201527f3234206269747300000000000000000000000000000000000000000000000000602082015250565b6000617988602783614fab565b91506179938261792c565b604082019050919050565b600060208201905081810360008301526179b78161797b565b9050919050565b7f476f7665726e6f723a20756e6b6e6f776e2070726f706f73616c206964000000600082015250565b60006179f4601d83614fab565b91506179ff826179be565b602082019050919050565b60006020820190508181036000830152617a23816179e7565b9050919050565b7f53616665436173743a2076616c756520646f65736e27742066697420696e203660008201527f3420626974730000000000000000000000000000000000000000000000000000602082015250565b6000617a86602683614fab565b9150617a9182617a2a565b604082019050919050565b60006020820190508181036000830152617ab581617a79565b9050919050565b600060a082019050617ad1600083018861595e565b617ade602083018761595e565b617aeb604083018661595e565b617af86060830185615101565b617b056080830184615539565b9695505050505050565b7f436865636b706f696e743a2064656372656173696e67206b6579730000000000600082015250565b6000617b45601b83614fab565b9150617b5082617b0f565b602082019050919050565b60006020820190508181036000830152617b7481617b38565b9050919050565b7f476f7665726e6f723a2070726f706f73616c206e6f7420616374697665000000600082015250565b6000617bb1601d83614fab565b9150617bbc82617b7b565b602082019050919050565b60006020820190508181036000830152617be081617ba4565b905091905056fe476f7665726e6f723a2072656c617920726576657274656420776974686f7574206d657373616765a26469706673582212201e60b048c4df349914169eb52b3452fa25c109001908539e395a59e7a315061b64736f6c63430008130033",
  "linkReferences": {},
  "deployedLinkReferences": {}
}